{
  "_format": "hh-sol-artifact-1",
  "contractName": "ReentrancyAttacker",
  "sourceName": "contracts/ReentrancyAttacker.sol",
  "abi": [
    {
      "inputs": [
        {
          "internalType": "address",
          "name": "_tokenAddress",
          "type": "address"
        }
      ],
      "stateMutability": "nonpayable",
      "type": "constructor"
    },
    {
      "inputs": [
        {
          "internalType": "uint256",
          "name": "amount",
          "type": "uint256"
        }
      ],
      "name": "attack",
      "outputs": [],
      "stateMutability": "nonpayable",
      "type": "function"
    },
    {
      "inputs": [],
      "name": "owner",
      "outputs": [
        {
          "internalType": "address",
          "name": "",
          "type": "address"
        }
      ],
      "stateMutability": "view",
      "type": "function"
    },
    {
      "inputs": [],
      "name": "token",
      "outputs": [
        {
          "internalType": "contract IERC20",
          "name": "",
          "type": "address"
        }
      ],
      "stateMutability": "view",
      "type": "function"
    }
  ],
  "bytecode": "0x608060405234801561001057600080fd5b5060405161030238038061030283398101604081905261002f916100b7565b6001600160a01b0381166100895760405162461bcd60e51b815260206004820152601560248201527f496e76616c696420746f6b656e20616464726573730000000000000000000000604482015260640160405180910390fd5b600080546001600160a01b039092166001600160a01b031992831617905560018054909116331790556100e7565b6000602082840312156100c957600080fd5b81516001600160a01b03811681146100e057600080fd5b9392505050565b61020c806100f66000396000f3fe608060405234801561001057600080fd5b50600436106100415760003560e01c806364dd891a146100465780638da5cb5b1461005b578063fc0c546a1461008a575b600080fd5b610059610054366004610194565b61009d565b005b60015461006e906001600160a01b031681565b6040516001600160a01b03909116815260200160405180910390f35b60005461006e906001600160a01b031681565b60005460015460405163a9059cbb60e01b81526001600160a01b0391821660048201526024810184905291169063a9059cbb906044016020604051808303816000875af11580156100f2573d6000803e3d6000fd5b505050506040513d601f19601f8201168201806040525081019061011691906101ad565b5060005460015460405163a9059cbb60e01b81526001600160a01b0391821660048201526024810184905291169063a9059cbb906044016020604051808303816000875af115801561016c573d6000803e3d6000fd5b505050506040513d601f19601f8201168201806040525081019061019091906101ad565b5050565b6000602082840312156101a657600080fd5b5035919050565b6000602082840312156101bf57600080fd5b815180151581146101cf57600080fd5b939250505056fea264697066735822122028daee94bdc4614e84ac21487e94f7be8e3cdbcb628a2047a71ea58277eb95d064736f6c63430008140033",
  "linkReferences": {},
  "deployedLinkReferences": {}
}