{
  "_format": "hh-sol-artifact-1",
  "contractName": "ReentrancyAttacker",
  "sourceName": "contracts/ReentrancyAttacker.sol",
  "abi": [
    {
      "inputs": [
        {
          "internalType": "address",
          "name": "_tokenAddress",
          "type": "address"
        }
      ],
      "stateMutability": "nonpayable",
      "type": "constructor"
    },
    {
      "inputs": [],
      "name": "attack",
      "outputs": [],
      "stateMutability": "nonpayable",
      "type": "function"
    },
    {
      "inputs": [],
      "name": "owner",
      "outputs": [
        {
          "internalType": "address",
          "name": "",
          "type": "address"
        }
      ],
      "stateMutability": "view",
      "type": "function"
    },
    {
      "inputs": [],
      "name": "token",
      "outputs": [
        {
          "internalType": "contract RoensToken",
          "name": "",
          "type": "address"
        }
      ],
      "stateMutability": "view",
      "type": "function"
    }
  ],
  "bytecode": "0x608060405234801561001057600080fd5b5060405161028938038061028983398101604081905261002f9161005d565b600080546001600160a01b039092166001600160a01b0319928316179055600180549091163317905561008d565b60006020828403121561006f57600080fd5b81516001600160a01b038116811461008657600080fd5b9392505050565b6101ed8061009c6000396000f3fe608060405234801561001057600080fd5b50600436106100415760003560e01c80638da5cb5b146100465780639e5faafc14610075578063fc0c546a1461007f575b600080fd5b600154610059906001600160a01b031681565b6040516001600160a01b03909116815260200160405180910390f35b61007d610092565b005b600054610059906001600160a01b031681565b6000546001805460405163a9059cbb60e01b81526001600160a01b03918216600482015260248101929092529091169063a9059cbb906044016020604051808303816000875af11580156100ea573d6000803e3d6000fd5b505050506040513d601f19601f8201168201806040525081019061010e919061018e565b506000546001805460405163a9059cbb60e01b81526001600160a01b03918216600482015260248101929092529091169063a9059cbb906044016020604051808303816000875af1158015610167573d6000803e3d6000fd5b505050506040513d601f19601f8201168201806040525081019061018b919061018e565b50565b6000602082840312156101a057600080fd5b815180151581146101b057600080fd5b939250505056fea2646970667358221220afd040eeee42781dc9b8fed834c3abf8c52289228374840b7e726f33f8b3212864736f6c63430008140033",
  "linkReferences": {},
  "deployedLinkReferences": {}
}