{
  "_format": "hh-sol-artifact-1",
  "contractName": "RoensToken",
  "sourceName": "contracts/roens-token.sol",
  "abi": [
    {
      "inputs": [],
      "stateMutability": "nonpayable",
      "type": "constructor"
    },
    {
      "inputs": [
        {
          "internalType": "address",
          "name": "spender",
          "type": "address"
        },
        {
          "internalType": "uint256",
          "name": "allowance",
          "type": "uint256"
        },
        {
          "internalType": "uint256",
          "name": "needed",
          "type": "uint256"
        }
      ],
      "name": "ERC20InsufficientAllowance",
      "type": "error"
    },
    {
      "inputs": [
        {
          "internalType": "address",
          "name": "sender",
          "type": "address"
        },
        {
          "internalType": "uint256",
          "name": "balance",
          "type": "uint256"
        },
        {
          "internalType": "uint256",
          "name": "needed",
          "type": "uint256"
        }
      ],
      "name": "ERC20InsufficientBalance",
      "type": "error"
    },
    {
      "inputs": [
        {
          "internalType": "address",
          "name": "approver",
          "type": "address"
        }
      ],
      "name": "ERC20InvalidApprover",
      "type": "error"
    },
    {
      "inputs": [
        {
          "internalType": "address",
          "name": "receiver",
          "type": "address"
        }
      ],
      "name": "ERC20InvalidReceiver",
      "type": "error"
    },
    {
      "inputs": [
        {
          "internalType": "address",
          "name": "sender",
          "type": "address"
        }
      ],
      "name": "ERC20InvalidSender",
      "type": "error"
    },
    {
      "inputs": [
        {
          "internalType": "address",
          "name": "spender",
          "type": "address"
        }
      ],
      "name": "ERC20InvalidSpender",
      "type": "error"
    },
    {
      "inputs": [
        {
          "internalType": "address",
          "name": "owner",
          "type": "address"
        }
      ],
      "name": "OwnableInvalidOwner",
      "type": "error"
    },
    {
      "inputs": [
        {
          "internalType": "address",
          "name": "account",
          "type": "address"
        }
      ],
      "name": "OwnableUnauthorizedAccount",
      "type": "error"
    },
    {
      "anonymous": false,
      "inputs": [
        {
          "indexed": true,
          "internalType": "address",
          "name": "owner",
          "type": "address"
        },
        {
          "indexed": true,
          "internalType": "address",
          "name": "spender",
          "type": "address"
        },
        {
          "indexed": false,
          "internalType": "uint256",
          "name": "value",
          "type": "uint256"
        }
      ],
      "name": "Approval",
      "type": "event"
    },
    {
      "anonymous": false,
      "inputs": [
        {
          "indexed": true,
          "internalType": "address",
          "name": "account",
          "type": "address"
        },
        {
          "indexed": false,
          "internalType": "bool",
          "name": "status",
          "type": "bool"
        }
      ],
      "name": "Blacklisted",
      "type": "event"
    },
    {
      "anonymous": false,
      "inputs": [
        {
          "indexed": true,
          "internalType": "address",
          "name": "previousOwner",
          "type": "address"
        },
        {
          "indexed": true,
          "internalType": "address",
          "name": "newOwner",
          "type": "address"
        }
      ],
      "name": "OwnershipTransferred",
      "type": "event"
    },
    {
      "anonymous": false,
      "inputs": [
        {
          "indexed": true,
          "internalType": "address",
          "name": "from",
          "type": "address"
        },
        {
          "indexed": true,
          "internalType": "address",
          "name": "to",
          "type": "address"
        },
        {
          "indexed": false,
          "internalType": "uint256",
          "name": "value",
          "type": "uint256"
        }
      ],
      "name": "Transfer",
      "type": "event"
    },
    {
      "inputs": [
        {
          "internalType": "address",
          "name": "owner",
          "type": "address"
        },
        {
          "internalType": "address",
          "name": "spender",
          "type": "address"
        }
      ],
      "name": "allowance",
      "outputs": [
        {
          "internalType": "uint256",
          "name": "",
          "type": "uint256"
        }
      ],
      "stateMutability": "view",
      "type": "function"
    },
    {
      "inputs": [
        {
          "internalType": "address",
          "name": "spender",
          "type": "address"
        },
        {
          "internalType": "uint256",
          "name": "value",
          "type": "uint256"
        }
      ],
      "name": "approve",
      "outputs": [
        {
          "internalType": "bool",
          "name": "",
          "type": "bool"
        }
      ],
      "stateMutability": "nonpayable",
      "type": "function"
    },
    {
      "inputs": [
        {
          "internalType": "address",
          "name": "account",
          "type": "address"
        }
      ],
      "name": "balanceOf",
      "outputs": [
        {
          "internalType": "uint256",
          "name": "",
          "type": "uint256"
        }
      ],
      "stateMutability": "view",
      "type": "function"
    },
    {
      "inputs": [
        {
          "internalType": "address",
          "name": "account",
          "type": "address"
        },
        {
          "internalType": "bool",
          "name": "status",
          "type": "bool"
        }
      ],
      "name": "blacklist",
      "outputs": [],
      "stateMutability": "nonpayable",
      "type": "function"
    },
    {
      "inputs": [
        {
          "internalType": "address",
          "name": "",
          "type": "address"
        }
      ],
      "name": "blacklisted",
      "outputs": [
        {
          "internalType": "bool",
          "name": "",
          "type": "bool"
        }
      ],
      "stateMutability": "view",
      "type": "function"
    },
    {
      "inputs": [
        {
          "internalType": "uint256",
          "name": "value",
          "type": "uint256"
        }
      ],
      "name": "burn",
      "outputs": [],
      "stateMutability": "nonpayable",
      "type": "function"
    },
    {
      "inputs": [
        {
          "internalType": "address",
          "name": "account",
          "type": "address"
        },
        {
          "internalType": "uint256",
          "name": "value",
          "type": "uint256"
        }
      ],
      "name": "burnFrom",
      "outputs": [],
      "stateMutability": "nonpayable",
      "type": "function"
    },
    {
      "inputs": [],
      "name": "decimals",
      "outputs": [
        {
          "internalType": "uint8",
          "name": "",
          "type": "uint8"
        }
      ],
      "stateMutability": "view",
      "type": "function"
    },
    {
      "inputs": [
        {
          "internalType": "address",
          "name": "",
          "type": "address"
        }
      ],
      "name": "isExemptFromLimits",
      "outputs": [
        {
          "internalType": "bool",
          "name": "",
          "type": "bool"
        }
      ],
      "stateMutability": "view",
      "type": "function"
    },
    {
      "inputs": [],
      "name": "maxTxAmount",
      "outputs": [
        {
          "internalType": "uint256",
          "name": "",
          "type": "uint256"
        }
      ],
      "stateMutability": "view",
      "type": "function"
    },
    {
      "inputs": [],
      "name": "maxWalletHolding",
      "outputs": [
        {
          "internalType": "uint256",
          "name": "",
          "type": "uint256"
        }
      ],
      "stateMutability": "view",
      "type": "function"
    },
    {
      "inputs": [
        {
          "internalType": "address",
          "name": "to",
          "type": "address"
        },
        {
          "internalType": "uint256",
          "name": "amount",
          "type": "uint256"
        }
      ],
      "name": "mint",
      "outputs": [],
      "stateMutability": "nonpayable",
      "type": "function"
    },
    {
      "inputs": [],
      "name": "name",
      "outputs": [
        {
          "internalType": "string",
          "name": "",
          "type": "string"
        }
      ],
      "stateMutability": "view",
      "type": "function"
    },
    {
      "inputs": [],
      "name": "owner",
      "outputs": [
        {
          "internalType": "address",
          "name": "",
          "type": "address"
        }
      ],
      "stateMutability": "view",
      "type": "function"
    },
    {
      "inputs": [],
      "name": "renounceOwnership",
      "outputs": [],
      "stateMutability": "nonpayable",
      "type": "function"
    },
    {
      "inputs": [
        {
          "internalType": "address",
          "name": "account",
          "type": "address"
        },
        {
          "internalType": "bool",
          "name": "status",
          "type": "bool"
        }
      ],
      "name": "setExemptFromLimits",
      "outputs": [],
      "stateMutability": "nonpayable",
      "type": "function"
    },
    {
      "inputs": [
        {
          "internalType": "uint256",
          "name": "amount",
          "type": "uint256"
        }
      ],
      "name": "setMaxTxAmount",
      "outputs": [],
      "stateMutability": "nonpayable",
      "type": "function"
    },
    {
      "inputs": [
        {
          "internalType": "uint256",
          "name": "amount",
          "type": "uint256"
        }
      ],
      "name": "setMaxWalletHolding",
      "outputs": [],
      "stateMutability": "nonpayable",
      "type": "function"
    },
    {
      "inputs": [],
      "name": "symbol",
      "outputs": [
        {
          "internalType": "string",
          "name": "",
          "type": "string"
        }
      ],
      "stateMutability": "view",
      "type": "function"
    },
    {
      "inputs": [],
      "name": "totalSupply",
      "outputs": [
        {
          "internalType": "uint256",
          "name": "",
          "type": "uint256"
        }
      ],
      "stateMutability": "view",
      "type": "function"
    },
    {
      "inputs": [
        {
          "internalType": "address",
          "name": "to",
          "type": "address"
        },
        {
          "internalType": "uint256",
          "name": "value",
          "type": "uint256"
        }
      ],
      "name": "transfer",
      "outputs": [
        {
          "internalType": "bool",
          "name": "",
          "type": "bool"
        }
      ],
      "stateMutability": "nonpayable",
      "type": "function"
    },
    {
      "inputs": [
        {
          "internalType": "address",
          "name": "from",
          "type": "address"
        },
        {
          "internalType": "address",
          "name": "to",
          "type": "address"
        },
        {
          "internalType": "uint256",
          "name": "value",
          "type": "uint256"
        }
      ],
      "name": "transferFrom",
      "outputs": [
        {
          "internalType": "bool",
          "name": "",
          "type": "bool"
        }
      ],
      "stateMutability": "nonpayable",
      "type": "function"
    },
    {
      "inputs": [
        {
          "internalType": "address",
          "name": "newOwner",
          "type": "address"
        }
      ],
      "name": "transferOwnership",
      "outputs": [],
      "stateMutability": "nonpayable",
      "type": "function"
    }
  ],
  "bytecode": "0x60806040523480156200001157600080fd5b503360405180604001604052806005815260200164526f656e7360d81b81525060405180604001604052806005815260200164524f454e5360d81b815250816003908162000060919062000570565b5060046200006f828262000570565b5050506001600160a01b038116620000a257604051631e4fbdf760e01b8152600060048201526024015b60405180910390fd5b620000ad816200011d565b506000620000be6012600a62000751565b620000ce906305f5e10062000769565b9050620000dc33826200016f565b620000e960648262000783565b600655620000f960328262000783565b60075550336000908152600960205260409020805460ff19166001179055620007bc565b600580546001600160a01b038381166001600160a01b0319831681179093556040519116919082907f8be0079c531659141344cd1fd0a4f28419497f9722a3daafe3b4186f6b6457e090600090a35050565b6001600160a01b0382166200019b5760405163ec442f0560e01b81526000600482015260240162000099565b620001a960008383620001ad565b5050565b6001600160a01b038316620001ce57620001c983838362000399565b505050565b6001600160a01b03831660009081526008602052604090205460ff161580156200021157506001600160a01b03821660009081526008602052604090205460ff16155b6200025f5760405162461bcd60e51b815260206004820152601660248201527f4164647265737320697320626c61636b6c697374656400000000000000000000604482015260640162000099565b6001600160a01b038316158015906200029157506001600160a01b03831660009081526009602052604090205460ff16155b8015620002b757506001600160a01b03821660009081526009602052604090205460ff16155b156200039157600654811115620003115760405162461bcd60e51b815260206004820152601e60248201527f45786365656473206d6178207472616e73616374696f6e20616d6f756e740000604482015260640162000099565b6007548162000335846001600160a01b031660009081526020819052604090205490565b620003419190620007a6565b1115620003915760405162461bcd60e51b815260206004820152601a60248201527f45786365656473206d61782077616c6c657420686f6c64696e67000000000000604482015260640162000099565b620001c98383835b6001600160a01b038316620003c8578060026000828254620003bc9190620007a6565b909155506200043c9050565b6001600160a01b038316600090815260208190526040902054818110156200041d5760405163391434e360e21b81526001600160a01b0385166004820152602481018290526044810183905260640162000099565b6001600160a01b03841660009081526020819052604090209082900390555b6001600160a01b0382166200045a5760028054829003905562000479565b6001600160a01b03821660009081526020819052604090208054820190555b816001600160a01b0316836001600160a01b03167fddf252ad1be2c89b69c2b068fc378daa952ba7f163c4a11628f55a4df523b3ef83604051620004bf91815260200190565b60405180910390a3505050565b634e487b7160e01b600052604160045260246000fd5b600181811c90821680620004f757607f821691505b6020821081036200051857634e487b7160e01b600052602260045260246000fd5b50919050565b601f821115620001c957600081815260208120601f850160051c81016020861015620005475750805b601f850160051c820191505b81811015620005685782815560010162000553565b505050505050565b81516001600160401b038111156200058c576200058c620004cc565b620005a4816200059d8454620004e2565b846200051e565b602080601f831160018114620005dc5760008415620005c35750858301515b600019600386901b1c1916600185901b17855562000568565b600085815260208120601f198616915b828110156200060d57888601518255948401946001909101908401620005ec565b50858210156200062c5787850151600019600388901b60f8161c191681555b5050505050600190811b01905550565b634e487b7160e01b600052601160045260246000fd5b600181815b80851115620006935781600019048211156200067757620006776200063c565b808516156200068557918102915b93841c939080029062000657565b509250929050565b600082620006ac575060016200074b565b81620006bb575060006200074b565b8160018114620006d45760028114620006df57620006ff565b60019150506200074b565b60ff841115620006f357620006f36200063c565b50506001821b6200074b565b5060208310610133831016604e8410600b841016171562000724575081810a6200074b565b62000730838362000652565b80600019048211156200074757620007476200063c565b0290505b92915050565b60006200076260ff8416836200069b565b9392505050565b80820281158282048414176200074b576200074b6200063c565b600082620007a157634e487b7160e01b600052601260045260246000fd5b500490565b808201808211156200074b576200074b6200063c565b610e3580620007cc6000396000f3fe608060405234801561001057600080fd5b506004361061014d5760003560e01c8063715018a6116100c3578063a9059cbb1161007c578063a9059cbb146102a1578063cd2c6a99146102b4578063dbac26e9146102d7578063dd62ed3e146102fa578063ec28438a14610333578063f2fde38b1461034657600080fd5b8063715018a61461024757806379cc67901461024f5780638c0b5e22146102625780638da5cb5b1461026b57806395d89b4114610286578063a13d1a2b1461028e57600080fd5b8063404e512911610115578063404e5129146101c757806340c10f19146101dc57806342966c68146101ef57806348d79155146102025780634fb2343a1461020b57806370a082311461021e57600080fd5b806306fdde0314610152578063095ea7b31461017057806318160ddd1461019357806323b872dd146101a5578063313ce567146101b8575b600080fd5b61015a610359565b6040516101679190610c2a565b60405180910390f35b61018361017e366004610c94565b6103eb565b6040519015158152602001610167565b6002545b604051908152602001610167565b6101836101b3366004610cbe565b610405565b60405160128152602001610167565b6101da6101d5366004610cfa565b610429565b005b6101da6101ea366004610c94565b610490565b6101da6101fd366004610d36565b610542565b61019760075481565b6101da610219366004610d36565b61054f565b61019761022c366004610d4f565b6001600160a01b031660009081526020819052604090205490565b6101da61055c565b6101da61025d366004610c94565b610570565b61019760065481565b6005546040516001600160a01b039091168152602001610167565b61015a610585565b6101da61029c366004610cfa565b610594565b6101836102af366004610c94565b61062b565b6101836102c2366004610d4f565b60096020526000908152604090205460ff1681565b6101836102e5366004610d4f565b60086020526000908152604090205460ff1681565b610197610308366004610d71565b6001600160a01b03918216600090815260016020908152604080832093909416825291909152205490565b6101da610341366004610d36565b610639565b6101da610354366004610d4f565b610646565b60606003805461036890610da4565b80601f016020809104026020016040519081016040528092919081815260200182805461039490610da4565b80156103e15780601f106103b6576101008083540402835291602001916103e1565b820191906000526020600020905b8154815290600101906020018083116103c457829003601f168201915b5050505050905090565b6000336103f9818585610681565b60019150505b92915050565b600033610413858285610693565b61041e858585610712565b506001949350505050565b610431610771565b6001600160a01b038216600081815260086020908152604091829020805460ff191685151590811790915591519182527fcf3473b85df1594d47b6958f29a32bea0abff9dd68296f7bf33443646793cfd8910160405180910390a25050565b610498610771565b6001600160a01b0382166104f35760405162461bcd60e51b815260206004820152601b60248201527f43616e6e6f74206d696e7420746f207a65726f2061646472657373000000000060448201526064015b60405180910390fd5b6040518181526001600160a01b038316906000907fddf252ad1be2c89b69c2b068fc378daa952ba7f163c4a11628f55a4df523b3ef9060200160405180910390a361053e828261079e565b5050565b61054c33826107d4565b50565b610557610771565b600755565b610564610771565b61056e600061080a565b565b61057b823383610693565b61053e82826107d4565b60606004805461036890610da4565b61059c610771565b6001600160a01b0382166106005760405162461bcd60e51b815260206004820152602560248201527f43616e6e6f7420736574206578656d7074696f6e20666f72207a65726f206164604482015264647265737360d81b60648201526084016104ea565b6001600160a01b03919091166000908152600960205260409020805460ff1916911515919091179055565b6000336103f9818585610712565b610641610771565b600655565b61064e610771565b6001600160a01b03811661067857604051631e4fbdf760e01b8152600060048201526024016104ea565b61054c8161080a565b61068e838383600161085c565b505050565b6001600160a01b0383811660009081526001602090815260408083209386168352929052205460001981101561070c57818110156106fd57604051637dc7a0d960e11b81526001600160a01b038416600482015260248101829052604481018390526064016104ea565b61070c8484848403600061085c565b50505050565b6001600160a01b03831661073c57604051634b637e8f60e11b8152600060048201526024016104ea565b6001600160a01b0382166107665760405163ec442f0560e01b8152600060048201526024016104ea565b61068e838383610931565b6005546001600160a01b0316331461056e5760405163118cdaa760e01b81523360048201526024016104ea565b6001600160a01b0382166107c85760405163ec442f0560e01b8152600060048201526024016104ea565b61053e60008383610931565b6001600160a01b0382166107fe57604051634b637e8f60e11b8152600060048201526024016104ea565b61053e82600083610931565b600580546001600160a01b038381166001600160a01b0319831681179093556040519116919082907f8be0079c531659141344cd1fd0a4f28419497f9722a3daafe3b4186f6b6457e090600090a35050565b6001600160a01b0384166108865760405163e602df0560e01b8152600060048201526024016104ea565b6001600160a01b0383166108b057604051634a1406b160e11b8152600060048201526024016104ea565b6001600160a01b038085166000908152600160209081526040808320938716835292905220829055801561070c57826001600160a01b0316846001600160a01b03167f8c5be1e5ebec7d5bd14f71427d1e84f3dd0314c0f7b2291e5b200ac8c7c3b9258460405161092391815260200190565b60405180910390a350505050565b6001600160a01b03831661094a5761068e838383610b00565b6001600160a01b03831660009081526008602052604090205460ff1615801561098c57506001600160a01b03821660009081526008602052604090205460ff16155b6109d15760405162461bcd60e51b81526020600482015260166024820152751059191c995cdcc81a5cc8189b1858dadb1a5cdd195960521b60448201526064016104ea565b6001600160a01b03831615801590610a0257506001600160a01b03831660009081526009602052604090205460ff16155b8015610a2757506001600160a01b03821660009081526009602052604090205460ff16155b15610af957600654811115610a7e5760405162461bcd60e51b815260206004820152601e60248201527f45786365656473206d6178207472616e73616374696f6e20616d6f756e74000060448201526064016104ea565b60075481610aa1846001600160a01b031660009081526020819052604090205490565b610aab9190610dde565b1115610af95760405162461bcd60e51b815260206004820152601a60248201527f45786365656473206d61782077616c6c657420686f6c64696e6700000000000060448201526064016104ea565b61068e8383835b6001600160a01b038316610b2b578060026000828254610b209190610dde565b90915550610b9d9050565b6001600160a01b03831660009081526020819052604090205481811015610b7e5760405163391434e360e21b81526001600160a01b038516600482015260248101829052604481018390526064016104ea565b6001600160a01b03841660009081526020819052604090209082900390555b6001600160a01b038216610bb957600280548290039055610bd8565b6001600160a01b03821660009081526020819052604090208054820190555b816001600160a01b0316836001600160a01b03167fddf252ad1be2c89b69c2b068fc378daa952ba7f163c4a11628f55a4df523b3ef83604051610c1d91815260200190565b60405180910390a3505050565b600060208083528351808285015260005b81811015610c5757858101830151858201604001528201610c3b565b506000604082860101526040601f19601f8301168501019250505092915050565b80356001600160a01b0381168114610c8f57600080fd5b919050565b60008060408385031215610ca757600080fd5b610cb083610c78565b946020939093013593505050565b600080600060608486031215610cd357600080fd5b610cdc84610c78565b9250610cea60208501610c78565b9150604084013590509250925092565b60008060408385031215610d0d57600080fd5b610d1683610c78565b915060208301358015158114610d2b57600080fd5b809150509250929050565b600060208284031215610d4857600080fd5b5035919050565b600060208284031215610d6157600080fd5b610d6a82610c78565b9392505050565b60008060408385031215610d8457600080fd5b610d8d83610c78565b9150610d9b60208401610c78565b90509250929050565b600181811c90821680610db857607f821691505b602082108103610dd857634e487b7160e01b600052602260045260246000fd5b50919050565b808201808211156103ff57634e487b7160e01b600052601160045260246000fdfea2646970667358221220e59d3bda277fdca335bdf91443f215dab8b4516931c116a48dac5bb74402fe6264736f6c63430008140033",
  "linkReferences": {},
  "deployedLinkReferences": {}
}