{
  "_format": "hh-sol-artifact-1",
  "contractName": "RoensToken",
  "sourceName": "contracts/roens-token.sol",
  "abi": [
    {
      "inputs": [],
      "stateMutability": "nonpayable",
      "type": "constructor"
    },
    {
      "inputs": [
        {
          "internalType": "address",
          "name": "spender",
          "type": "address"
        },
        {
          "internalType": "uint256",
          "name": "allowance",
          "type": "uint256"
        },
        {
          "internalType": "uint256",
          "name": "needed",
          "type": "uint256"
        }
      ],
      "name": "ERC20InsufficientAllowance",
      "type": "error"
    },
    {
      "inputs": [
        {
          "internalType": "address",
          "name": "sender",
          "type": "address"
        },
        {
          "internalType": "uint256",
          "name": "balance",
          "type": "uint256"
        },
        {
          "internalType": "uint256",
          "name": "needed",
          "type": "uint256"
        }
      ],
      "name": "ERC20InsufficientBalance",
      "type": "error"
    },
    {
      "inputs": [
        {
          "internalType": "address",
          "name": "approver",
          "type": "address"
        }
      ],
      "name": "ERC20InvalidApprover",
      "type": "error"
    },
    {
      "inputs": [
        {
          "internalType": "address",
          "name": "receiver",
          "type": "address"
        }
      ],
      "name": "ERC20InvalidReceiver",
      "type": "error"
    },
    {
      "inputs": [
        {
          "internalType": "address",
          "name": "sender",
          "type": "address"
        }
      ],
      "name": "ERC20InvalidSender",
      "type": "error"
    },
    {
      "inputs": [
        {
          "internalType": "address",
          "name": "spender",
          "type": "address"
        }
      ],
      "name": "ERC20InvalidSpender",
      "type": "error"
    },
    {
      "inputs": [],
      "name": "EnforcedPause",
      "type": "error"
    },
    {
      "inputs": [],
      "name": "ExpectedPause",
      "type": "error"
    },
    {
      "inputs": [
        {
          "internalType": "address",
          "name": "owner",
          "type": "address"
        }
      ],
      "name": "OwnableInvalidOwner",
      "type": "error"
    },
    {
      "inputs": [
        {
          "internalType": "address",
          "name": "account",
          "type": "address"
        }
      ],
      "name": "OwnableUnauthorizedAccount",
      "type": "error"
    },
    {
      "anonymous": false,
      "inputs": [
        {
          "indexed": true,
          "internalType": "address",
          "name": "owner",
          "type": "address"
        },
        {
          "indexed": true,
          "internalType": "address",
          "name": "spender",
          "type": "address"
        },
        {
          "indexed": false,
          "internalType": "uint256",
          "name": "value",
          "type": "uint256"
        }
      ],
      "name": "Approval",
      "type": "event"
    },
    {
      "anonymous": false,
      "inputs": [
        {
          "indexed": true,
          "internalType": "address",
          "name": "previousOwner",
          "type": "address"
        },
        {
          "indexed": true,
          "internalType": "address",
          "name": "newOwner",
          "type": "address"
        }
      ],
      "name": "OwnershipTransferred",
      "type": "event"
    },
    {
      "anonymous": false,
      "inputs": [
        {
          "indexed": false,
          "internalType": "address",
          "name": "account",
          "type": "address"
        }
      ],
      "name": "Paused",
      "type": "event"
    },
    {
      "anonymous": false,
      "inputs": [
        {
          "indexed": true,
          "internalType": "address",
          "name": "from",
          "type": "address"
        },
        {
          "indexed": true,
          "internalType": "address",
          "name": "to",
          "type": "address"
        },
        {
          "indexed": false,
          "internalType": "uint256",
          "name": "value",
          "type": "uint256"
        }
      ],
      "name": "Transfer",
      "type": "event"
    },
    {
      "anonymous": false,
      "inputs": [
        {
          "indexed": false,
          "internalType": "address",
          "name": "account",
          "type": "address"
        }
      ],
      "name": "Unpaused",
      "type": "event"
    },
    {
      "inputs": [
        {
          "internalType": "address",
          "name": "owner",
          "type": "address"
        },
        {
          "internalType": "address",
          "name": "spender",
          "type": "address"
        }
      ],
      "name": "allowance",
      "outputs": [
        {
          "internalType": "uint256",
          "name": "",
          "type": "uint256"
        }
      ],
      "stateMutability": "view",
      "type": "function"
    },
    {
      "inputs": [
        {
          "internalType": "address",
          "name": "spender",
          "type": "address"
        },
        {
          "internalType": "uint256",
          "name": "value",
          "type": "uint256"
        }
      ],
      "name": "approve",
      "outputs": [
        {
          "internalType": "bool",
          "name": "",
          "type": "bool"
        }
      ],
      "stateMutability": "nonpayable",
      "type": "function"
    },
    {
      "inputs": [
        {
          "internalType": "address",
          "name": "account",
          "type": "address"
        }
      ],
      "name": "balanceOf",
      "outputs": [
        {
          "internalType": "uint256",
          "name": "",
          "type": "uint256"
        }
      ],
      "stateMutability": "view",
      "type": "function"
    },
    {
      "inputs": [
        {
          "internalType": "address",
          "name": "account",
          "type": "address"
        },
        {
          "internalType": "bool",
          "name": "value",
          "type": "bool"
        }
      ],
      "name": "blacklistAddress",
      "outputs": [],
      "stateMutability": "nonpayable",
      "type": "function"
    },
    {
      "inputs": [
        {
          "internalType": "uint256",
          "name": "value",
          "type": "uint256"
        }
      ],
      "name": "burn",
      "outputs": [],
      "stateMutability": "nonpayable",
      "type": "function"
    },
    {
      "inputs": [
        {
          "internalType": "address",
          "name": "account",
          "type": "address"
        },
        {
          "internalType": "uint256",
          "name": "value",
          "type": "uint256"
        }
      ],
      "name": "burnFrom",
      "outputs": [],
      "stateMutability": "nonpayable",
      "type": "function"
    },
    {
      "inputs": [],
      "name": "decimals",
      "outputs": [
        {
          "internalType": "uint8",
          "name": "",
          "type": "uint8"
        }
      ],
      "stateMutability": "view",
      "type": "function"
    },
    {
      "inputs": [],
      "name": "disableContract",
      "outputs": [],
      "stateMutability": "nonpayable",
      "type": "function"
    },
    {
      "inputs": [
        {
          "internalType": "address",
          "name": "account",
          "type": "address"
        },
        {
          "internalType": "bool",
          "name": "excluded",
          "type": "bool"
        }
      ],
      "name": "excludeFromLimits",
      "outputs": [],
      "stateMutability": "nonpayable",
      "type": "function"
    },
    {
      "inputs": [
        {
          "internalType": "address",
          "name": "account",
          "type": "address"
        }
      ],
      "name": "isBlacklisted",
      "outputs": [
        {
          "internalType": "bool",
          "name": "",
          "type": "bool"
        }
      ],
      "stateMutability": "view",
      "type": "function"
    },
    {
      "inputs": [],
      "name": "maxTxAmount",
      "outputs": [
        {
          "internalType": "uint256",
          "name": "",
          "type": "uint256"
        }
      ],
      "stateMutability": "view",
      "type": "function"
    },
    {
      "inputs": [],
      "name": "name",
      "outputs": [
        {
          "internalType": "string",
          "name": "",
          "type": "string"
        }
      ],
      "stateMutability": "view",
      "type": "function"
    },
    {
      "inputs": [],
      "name": "owner",
      "outputs": [
        {
          "internalType": "address",
          "name": "",
          "type": "address"
        }
      ],
      "stateMutability": "view",
      "type": "function"
    },
    {
      "inputs": [],
      "name": "pause",
      "outputs": [],
      "stateMutability": "nonpayable",
      "type": "function"
    },
    {
      "inputs": [],
      "name": "paused",
      "outputs": [
        {
          "internalType": "bool",
          "name": "",
          "type": "bool"
        }
      ],
      "stateMutability": "view",
      "type": "function"
    },
    {
      "inputs": [],
      "name": "renounceOwnership",
      "outputs": [],
      "stateMutability": "nonpayable",
      "type": "function"
    },
    {
      "inputs": [
        {
          "internalType": "uint256",
          "name": "amount",
          "type": "uint256"
        }
      ],
      "name": "setMaxTxAmount",
      "outputs": [],
      "stateMutability": "nonpayable",
      "type": "function"
    },
    {
      "inputs": [],
      "name": "symbol",
      "outputs": [
        {
          "internalType": "string",
          "name": "",
          "type": "string"
        }
      ],
      "stateMutability": "view",
      "type": "function"
    },
    {
      "inputs": [],
      "name": "totalSupply",
      "outputs": [
        {
          "internalType": "uint256",
          "name": "",
          "type": "uint256"
        }
      ],
      "stateMutability": "view",
      "type": "function"
    },
    {
      "inputs": [
        {
          "internalType": "address",
          "name": "to",
          "type": "address"
        },
        {
          "internalType": "uint256",
          "name": "value",
          "type": "uint256"
        }
      ],
      "name": "transfer",
      "outputs": [
        {
          "internalType": "bool",
          "name": "",
          "type": "bool"
        }
      ],
      "stateMutability": "nonpayable",
      "type": "function"
    },
    {
      "inputs": [
        {
          "internalType": "address",
          "name": "from",
          "type": "address"
        },
        {
          "internalType": "address",
          "name": "to",
          "type": "address"
        },
        {
          "internalType": "uint256",
          "name": "value",
          "type": "uint256"
        }
      ],
      "name": "transferFrom",
      "outputs": [
        {
          "internalType": "bool",
          "name": "",
          "type": "bool"
        }
      ],
      "stateMutability": "nonpayable",
      "type": "function"
    },
    {
      "inputs": [
        {
          "internalType": "address",
          "name": "newOwner",
          "type": "address"
        }
      ],
      "name": "transferOwnership",
      "outputs": [],
      "stateMutability": "nonpayable",
      "type": "function"
    },
    {
      "inputs": [],
      "name": "unpause",
      "outputs": [],
      "stateMutability": "nonpayable",
      "type": "function"
    },
    {
      "inputs": [],
      "name": "withdrawEther",
      "outputs": [],
      "stateMutability": "nonpayable",
      "type": "function"
    },
    {
      "stateMutability": "payable",
      "type": "receive"
    }
  ],
  "bytecode": "0x6080604052620000126012600a620005da565b62000021906207a120620005f2565b6007553480156200003157600080fd5b503360405180604001604052806005815260200164526f656e7360d81b81525060405180604001604052806005815260200164524f454e5360d81b8152508160039081620000809190620006b0565b5060046200008f8282620006b0565b50506005805460ff19169055506001600160a01b038116620000cc57604051631e4fbdf760e01b8152600060048201526024015b60405180910390fd5b620000d78162000107565b506200010133620000eb6012600a620005da565b620000fb906305f5e100620005f2565b62000161565b62000792565b600580546001600160a01b03838116610100818102610100600160a81b031985161790945560405193909204169182907f8be0079c531659141344cd1fd0a4f28419497f9722a3daafe3b4186f6b6457e090600090a35050565b6001600160a01b0382166200018d5760405163ec442f0560e01b815260006004820152602401620000c3565b6200019b600083836200019f565b5050565b60095460ff1615620001f45760405162461bcd60e51b815260206004820152601a60248201527f546f6b656e20636f6e74726163742069732064697361626c65640000000000006044820152606401620000c3565b6001600160a01b03831660009081526006602052604090205460ff16156200025f5760405162461bcd60e51b815260206004820152601560248201527f53656e64657220697320626c61636b6c697374656400000000000000000000006044820152606401620000c3565b6001600160a01b03821660009081526006602052604090205460ff1615620002ca5760405162461bcd60e51b815260206004820152601860248201527f526563697069656e7420697320626c61636b6c697374656400000000000000006044820152606401620000c3565b60075481111580620002f457506001600160a01b03831660009081526008602052604090205460ff165b620003425760405162461bcd60e51b815260206004820152601c60248201527f5472616e736665722065786365656473206d61785478416d6f756e74000000006044820152606401620000c3565b6200034f83838362000354565b505050565b6200035e6200036b565b6200034f83838362000392565b60055460ff1615620003905760405163d93c066560e01b815260040160405180910390fd5b565b6001600160a01b038316620003c1578060026000828254620003b591906200077c565b90915550620004359050565b6001600160a01b03831660009081526020819052604090205481811015620004165760405163391434e360e21b81526001600160a01b03851660048201526024810182905260448101839052606401620000c3565b6001600160a01b03841660009081526020819052604090209082900390555b6001600160a01b038216620004535760028054829003905562000472565b6001600160a01b03821660009081526020819052604090208054820190555b816001600160a01b0316836001600160a01b03167fddf252ad1be2c89b69c2b068fc378daa952ba7f163c4a11628f55a4df523b3ef83604051620004b891815260200190565b60405180910390a3505050565b634e487b7160e01b600052601160045260246000fd5b600181815b808511156200051c578160001904821115620005005762000500620004c5565b808516156200050e57918102915b93841c9390800290620004e0565b509250929050565b6000826200053557506001620005d4565b816200054457506000620005d4565b81600181146200055d5760028114620005685762000588565b6001915050620005d4565b60ff8411156200057c576200057c620004c5565b50506001821b620005d4565b5060208310610133831016604e8410600b8410161715620005ad575081810a620005d4565b620005b98383620004db565b8060001904821115620005d057620005d0620004c5565b0290505b92915050565b6000620005eb60ff84168362000524565b9392505050565b8082028115828204841417620005d457620005d4620004c5565b634e487b7160e01b600052604160045260246000fd5b600181811c908216806200063757607f821691505b6020821081036200065857634e487b7160e01b600052602260045260246000fd5b50919050565b601f8211156200034f57600081815260208120601f850160051c81016020861015620006875750805b601f850160051c820191505b81811015620006a85782815560010162000693565b505050505050565b81516001600160401b03811115620006cc57620006cc6200060c565b620006e481620006dd845462000622565b846200065e565b602080601f8311600181146200071c5760008415620007035750858301515b600019600386901b1c1916600185901b178555620006a8565b600085815260208120601f198616915b828110156200074d578886015182559484019460019091019084016200072c565b50858210156200076c5787850151600019600388901b60f8161c191681555b5050505050600190811b01905550565b80820180821115620005d457620005d4620004c5565b610f2180620007a26000396000f3fe60806040526004361061014f5760003560e01c806379cc6790116100b6578063a9059cbb1161006f578063a9059cbb1461038b578063c0a904a2146103ab578063dd62ed3e146103cb578063ec28438a14610411578063f2fde38b14610431578063fe575a871461045157600080fd5b806379cc6790146102e05780638456cb5914610300578063894ba833146103155780638c0b5e221461032a5780638da5cb5b1461034057806395d89b411461037657600080fd5b806342966c681161010857806342966c6814610228578063455a4396146102485780635c975abb1461026857806370a0823114610280578063715018a6146102b65780637362377b146102cb57600080fd5b806306fdde031461015b578063095ea7b31461018657806318160ddd146101b657806323b872dd146101d5578063313ce567146101f55780633f4ba83a1461021157600080fd5b3661015657005b600080fd5b34801561016757600080fd5b5061017061048a565b60405161017d9190610d16565b60405180910390f35b34801561019257600080fd5b506101a66101a1366004610d80565b61051c565b604051901515815260200161017d565b3480156101c257600080fd5b506002545b60405190815260200161017d565b3480156101e157600080fd5b506101a66101f0366004610daa565b610536565b34801561020157600080fd5b506040516012815260200161017d565b34801561021d57600080fd5b5061022661055a565b005b34801561023457600080fd5b50610226610243366004610de6565b61056c565b34801561025457600080fd5b50610226610263366004610dff565b610579565b34801561027457600080fd5b5060055460ff166101a6565b34801561028c57600080fd5b506101c761029b366004610e3b565b6001600160a01b031660009081526020819052604090205490565b3480156102c257600080fd5b506102266105ac565b3480156102d757600080fd5b506102266105be565b3480156102ec57600080fd5b506102266102fb366004610d80565b610606565b34801561030c57600080fd5b5061022661061f565b34801561032157600080fd5b5061022661062f565b34801561033657600080fd5b506101c760075481565b34801561034c57600080fd5b5060055461010090046001600160a01b03166040516001600160a01b03909116815260200161017d565b34801561038257600080fd5b50610170610646565b34801561039757600080fd5b506101a66103a6366004610d80565b610655565b3480156103b757600080fd5b506102266103c6366004610dff565b610663565b3480156103d757600080fd5b506101c76103e6366004610e5d565b6001600160a01b03918216600090815260016020908152604080832093909416825291909152205490565b34801561041d57600080fd5b5061022661042c366004610de6565b610696565b34801561043d57600080fd5b5061022661044c366004610e3b565b6106a3565b34801561045d57600080fd5b506101a661046c366004610e3b565b6001600160a01b031660009081526006602052604090205460ff1690565b60606003805461049990610e90565b80601f01602080910402602001604051908101604052809291908181526020018280546104c590610e90565b80156105125780601f106104e757610100808354040283529160200191610512565b820191906000526020600020905b8154815290600101906020018083116104f557829003601f168201915b5050505050905090565b60003361052a8185856106e3565b60019150505b92915050565b6000336105448582856106f5565b61054f858585610774565b506001949350505050565b6105626107d3565b61056a610806565b565b6105763382610858565b50565b6105816107d3565b6001600160a01b03919091166000908152600660205260409020805460ff1916911515919091179055565b6105b46107d3565b61056a600061088e565b6105c66107d3565b6005546040516001600160a01b0361010090920491909116904780156108fc02916000818181858888f19350505050158015610576573d6000803e3d6000fd5b6106118233836106f5565b61061b8282610858565b5050565b6106276107d3565b61056a6108e8565b6106376107d3565b6009805460ff19166001179055565b60606004805461049990610e90565b60003361052a818585610774565b61066b6107d3565b6001600160a01b03919091166000908152600860205260409020805460ff1916911515919091179055565b61069e6107d3565b600755565b6106ab6107d3565b6001600160a01b0381166106da57604051631e4fbdf760e01b8152600060048201526024015b60405180910390fd5b6105768161088e565b6106f08383836001610925565b505050565b6001600160a01b0383811660009081526001602090815260408083209386168352929052205460001981101561076e578181101561075f57604051637dc7a0d960e11b81526001600160a01b038416600482015260248101829052604481018390526064016106d1565b61076e84848484036000610925565b50505050565b6001600160a01b03831661079e57604051634b637e8f60e11b8152600060048201526024016106d1565b6001600160a01b0382166107c85760405163ec442f0560e01b8152600060048201526024016106d1565b6106f08383836109fa565b6005546001600160a01b0361010090910416331461056a5760405163118cdaa760e01b81523360048201526024016106d1565b61080e610b97565b6005805460ff191690557f5db9ee0a495bf2e6ff9c91a7834c1ba4fdd244a5e8aa4e537bd38aeae4b073aa335b6040516001600160a01b03909116815260200160405180910390a1565b6001600160a01b03821661088257604051634b637e8f60e11b8152600060048201526024016106d1565b61061b826000836109fa565b600580546001600160a01b03838116610100818102610100600160a81b031985161790945560405193909204169182907f8be0079c531659141344cd1fd0a4f28419497f9722a3daafe3b4186f6b6457e090600090a35050565b6108f0610bba565b6005805460ff191660011790557f62e78cea01bee320cd4e420270b5ea74000d11b0c9f74754ebdbfc544b05a25861083b3390565b6001600160a01b03841661094f5760405163e602df0560e01b8152600060048201526024016106d1565b6001600160a01b03831661097957604051634a1406b160e11b8152600060048201526024016106d1565b6001600160a01b038085166000908152600160209081526040808320938716835292905220829055801561076e57826001600160a01b0316846001600160a01b03167f8c5be1e5ebec7d5bd14f71427d1e84f3dd0314c0f7b2291e5b200ac8c7c3b925846040516109ec91815260200190565b60405180910390a350505050565b60095460ff1615610a4d5760405162461bcd60e51b815260206004820152601a60248201527f546f6b656e20636f6e74726163742069732064697361626c656400000000000060448201526064016106d1565b6001600160a01b03831660009081526006602052604090205460ff1615610aae5760405162461bcd60e51b815260206004820152601560248201527414d95b99195c881a5cc8189b1858dadb1a5cdd1959605a1b60448201526064016106d1565b6001600160a01b03821660009081526006602052604090205460ff1615610b175760405162461bcd60e51b815260206004820152601860248201527f526563697069656e7420697320626c61636b6c6973746564000000000000000060448201526064016106d1565b60075481111580610b4057506001600160a01b03831660009081526008602052604090205460ff165b610b8c5760405162461bcd60e51b815260206004820152601c60248201527f5472616e736665722065786365656473206d61785478416d6f756e740000000060448201526064016106d1565b6106f0838383610bde565b60055460ff1661056a57604051638dfc202b60e01b815260040160405180910390fd5b60055460ff161561056a5760405163d93c066560e01b815260040160405180910390fd5b610be6610bba565b6106f08383836001600160a01b038316610c17578060026000828254610c0c9190610eca565b90915550610c899050565b6001600160a01b03831660009081526020819052604090205481811015610c6a5760405163391434e360e21b81526001600160a01b038516600482015260248101829052604481018390526064016106d1565b6001600160a01b03841660009081526020819052604090209082900390555b6001600160a01b038216610ca557600280548290039055610cc4565b6001600160a01b03821660009081526020819052604090208054820190555b816001600160a01b0316836001600160a01b03167fddf252ad1be2c89b69c2b068fc378daa952ba7f163c4a11628f55a4df523b3ef83604051610d0991815260200190565b60405180910390a3505050565b600060208083528351808285015260005b81811015610d4357858101830151858201604001528201610d27565b506000604082860101526040601f19601f8301168501019250505092915050565b80356001600160a01b0381168114610d7b57600080fd5b919050565b60008060408385031215610d9357600080fd5b610d9c83610d64565b946020939093013593505050565b600080600060608486031215610dbf57600080fd5b610dc884610d64565b9250610dd660208501610d64565b9150604084013590509250925092565b600060208284031215610df857600080fd5b5035919050565b60008060408385031215610e1257600080fd5b610e1b83610d64565b915060208301358015158114610e3057600080fd5b809150509250929050565b600060208284031215610e4d57600080fd5b610e5682610d64565b9392505050565b60008060408385031215610e7057600080fd5b610e7983610d64565b9150610e8760208401610d64565b90509250929050565b600181811c90821680610ea457607f821691505b602082108103610ec457634e487b7160e01b600052602260045260246000fd5b50919050565b8082018082111561053057634e487b7160e01b600052601160045260246000fdfea2646970667358221220d41e7a70c8193d4c22e3c44102856fcf3a3e1a33530978dfb1a571dbcd6baa2064736f6c63430008140033",
  "linkReferences": {},
  "deployedLinkReferences": {}
}