{
  "_format": "hh-sol-artifact-1",
  "contractName": "RoensToken",
  "sourceName": "contracts/roens-token.sol",
  "abi": [
    {
      "inputs": [
        {
          "internalType": "address",
          "name": "_taxWallet",
          "type": "address"
        }
      ],
      "stateMutability": "nonpayable",
      "type": "constructor"
    },
    {
      "inputs": [
        {
          "internalType": "address",
          "name": "spender",
          "type": "address"
        },
        {
          "internalType": "uint256",
          "name": "allowance",
          "type": "uint256"
        },
        {
          "internalType": "uint256",
          "name": "needed",
          "type": "uint256"
        }
      ],
      "name": "ERC20InsufficientAllowance",
      "type": "error"
    },
    {
      "inputs": [
        {
          "internalType": "address",
          "name": "sender",
          "type": "address"
        },
        {
          "internalType": "uint256",
          "name": "balance",
          "type": "uint256"
        },
        {
          "internalType": "uint256",
          "name": "needed",
          "type": "uint256"
        }
      ],
      "name": "ERC20InsufficientBalance",
      "type": "error"
    },
    {
      "inputs": [
        {
          "internalType": "address",
          "name": "approver",
          "type": "address"
        }
      ],
      "name": "ERC20InvalidApprover",
      "type": "error"
    },
    {
      "inputs": [
        {
          "internalType": "address",
          "name": "receiver",
          "type": "address"
        }
      ],
      "name": "ERC20InvalidReceiver",
      "type": "error"
    },
    {
      "inputs": [
        {
          "internalType": "address",
          "name": "sender",
          "type": "address"
        }
      ],
      "name": "ERC20InvalidSender",
      "type": "error"
    },
    {
      "inputs": [
        {
          "internalType": "address",
          "name": "spender",
          "type": "address"
        }
      ],
      "name": "ERC20InvalidSpender",
      "type": "error"
    },
    {
      "inputs": [],
      "name": "EnforcedPause",
      "type": "error"
    },
    {
      "inputs": [],
      "name": "ExpectedPause",
      "type": "error"
    },
    {
      "inputs": [
        {
          "internalType": "address",
          "name": "owner",
          "type": "address"
        }
      ],
      "name": "OwnableInvalidOwner",
      "type": "error"
    },
    {
      "inputs": [
        {
          "internalType": "address",
          "name": "account",
          "type": "address"
        }
      ],
      "name": "OwnableUnauthorizedAccount",
      "type": "error"
    },
    {
      "anonymous": false,
      "inputs": [
        {
          "indexed": true,
          "internalType": "address",
          "name": "owner",
          "type": "address"
        },
        {
          "indexed": true,
          "internalType": "address",
          "name": "spender",
          "type": "address"
        },
        {
          "indexed": false,
          "internalType": "uint256",
          "name": "value",
          "type": "uint256"
        }
      ],
      "name": "Approval",
      "type": "event"
    },
    {
      "anonymous": false,
      "inputs": [
        {
          "indexed": true,
          "internalType": "address",
          "name": "previousOwner",
          "type": "address"
        },
        {
          "indexed": true,
          "internalType": "address",
          "name": "newOwner",
          "type": "address"
        }
      ],
      "name": "OwnershipTransferred",
      "type": "event"
    },
    {
      "anonymous": false,
      "inputs": [
        {
          "indexed": false,
          "internalType": "address",
          "name": "account",
          "type": "address"
        }
      ],
      "name": "Paused",
      "type": "event"
    },
    {
      "anonymous": false,
      "inputs": [
        {
          "indexed": true,
          "internalType": "address",
          "name": "from",
          "type": "address"
        },
        {
          "indexed": true,
          "internalType": "address",
          "name": "to",
          "type": "address"
        },
        {
          "indexed": false,
          "internalType": "uint256",
          "name": "value",
          "type": "uint256"
        }
      ],
      "name": "Transfer",
      "type": "event"
    },
    {
      "anonymous": false,
      "inputs": [
        {
          "indexed": false,
          "internalType": "address",
          "name": "account",
          "type": "address"
        }
      ],
      "name": "Unpaused",
      "type": "event"
    },
    {
      "inputs": [
        {
          "internalType": "address",
          "name": "owner",
          "type": "address"
        },
        {
          "internalType": "address",
          "name": "spender",
          "type": "address"
        }
      ],
      "name": "allowance",
      "outputs": [
        {
          "internalType": "uint256",
          "name": "",
          "type": "uint256"
        }
      ],
      "stateMutability": "view",
      "type": "function"
    },
    {
      "inputs": [
        {
          "internalType": "address",
          "name": "spender",
          "type": "address"
        },
        {
          "internalType": "uint256",
          "name": "value",
          "type": "uint256"
        }
      ],
      "name": "approve",
      "outputs": [
        {
          "internalType": "bool",
          "name": "",
          "type": "bool"
        }
      ],
      "stateMutability": "nonpayable",
      "type": "function"
    },
    {
      "inputs": [
        {
          "internalType": "address",
          "name": "account",
          "type": "address"
        }
      ],
      "name": "balanceOf",
      "outputs": [
        {
          "internalType": "uint256",
          "name": "",
          "type": "uint256"
        }
      ],
      "stateMutability": "view",
      "type": "function"
    },
    {
      "inputs": [
        {
          "internalType": "address",
          "name": "account",
          "type": "address"
        },
        {
          "internalType": "bool",
          "name": "value",
          "type": "bool"
        }
      ],
      "name": "blacklistAddress",
      "outputs": [],
      "stateMutability": "nonpayable",
      "type": "function"
    },
    {
      "inputs": [
        {
          "internalType": "uint256",
          "name": "value",
          "type": "uint256"
        }
      ],
      "name": "burn",
      "outputs": [],
      "stateMutability": "nonpayable",
      "type": "function"
    },
    {
      "inputs": [
        {
          "internalType": "address",
          "name": "account",
          "type": "address"
        },
        {
          "internalType": "uint256",
          "name": "value",
          "type": "uint256"
        }
      ],
      "name": "burnFrom",
      "outputs": [],
      "stateMutability": "nonpayable",
      "type": "function"
    },
    {
      "inputs": [],
      "name": "claimVestedTokens",
      "outputs": [],
      "stateMutability": "nonpayable",
      "type": "function"
    },
    {
      "inputs": [],
      "name": "decimals",
      "outputs": [
        {
          "internalType": "uint8",
          "name": "",
          "type": "uint8"
        }
      ],
      "stateMutability": "view",
      "type": "function"
    },
    {
      "inputs": [],
      "name": "disableContract",
      "outputs": [],
      "stateMutability": "nonpayable",
      "type": "function"
    },
    {
      "inputs": [
        {
          "internalType": "address",
          "name": "account",
          "type": "address"
        },
        {
          "internalType": "bool",
          "name": "excluded",
          "type": "bool"
        }
      ],
      "name": "excludeFromLimits",
      "outputs": [],
      "stateMutability": "nonpayable",
      "type": "function"
    },
    {
      "inputs": [
        {
          "internalType": "address",
          "name": "account",
          "type": "address"
        }
      ],
      "name": "getLockedBalance",
      "outputs": [
        {
          "internalType": "uint256",
          "name": "",
          "type": "uint256"
        }
      ],
      "stateMutability": "view",
      "type": "function"
    },
    {
      "inputs": [
        {
          "internalType": "address",
          "name": "account",
          "type": "address"
        }
      ],
      "name": "isBlacklisted",
      "outputs": [
        {
          "internalType": "bool",
          "name": "",
          "type": "bool"
        }
      ],
      "stateMutability": "view",
      "type": "function"
    },
    {
      "inputs": [
        {
          "internalType": "address",
          "name": "account",
          "type": "address"
        },
        {
          "internalType": "uint256",
          "name": "amount",
          "type": "uint256"
        },
        {
          "internalType": "uint256",
          "name": "unlockTime",
          "type": "uint256"
        }
      ],
      "name": "lockTokens",
      "outputs": [],
      "stateMutability": "nonpayable",
      "type": "function"
    },
    {
      "inputs": [],
      "name": "maxTxAmount",
      "outputs": [
        {
          "internalType": "uint256",
          "name": "",
          "type": "uint256"
        }
      ],
      "stateMutability": "view",
      "type": "function"
    },
    {
      "inputs": [],
      "name": "name",
      "outputs": [
        {
          "internalType": "string",
          "name": "",
          "type": "string"
        }
      ],
      "stateMutability": "view",
      "type": "function"
    },
    {
      "inputs": [],
      "name": "owner",
      "outputs": [
        {
          "internalType": "address",
          "name": "",
          "type": "address"
        }
      ],
      "stateMutability": "view",
      "type": "function"
    },
    {
      "inputs": [],
      "name": "pause",
      "outputs": [],
      "stateMutability": "nonpayable",
      "type": "function"
    },
    {
      "inputs": [],
      "name": "paused",
      "outputs": [
        {
          "internalType": "bool",
          "name": "",
          "type": "bool"
        }
      ],
      "stateMutability": "view",
      "type": "function"
    },
    {
      "inputs": [],
      "name": "renounceOwnership",
      "outputs": [],
      "stateMutability": "nonpayable",
      "type": "function"
    },
    {
      "inputs": [
        {
          "internalType": "uint256",
          "name": "amount",
          "type": "uint256"
        }
      ],
      "name": "setMaxTxAmount",
      "outputs": [],
      "stateMutability": "nonpayable",
      "type": "function"
    },
    {
      "inputs": [
        {
          "internalType": "uint256",
          "name": "tax",
          "type": "uint256"
        }
      ],
      "name": "setTransactionTax",
      "outputs": [],
      "stateMutability": "nonpayable",
      "type": "function"
    },
    {
      "inputs": [
        {
          "internalType": "address",
          "name": "account",
          "type": "address"
        },
        {
          "internalType": "uint256",
          "name": "amount",
          "type": "uint256"
        },
        {
          "internalType": "uint256",
          "name": "releaseTime",
          "type": "uint256"
        }
      ],
      "name": "setVesting",
      "outputs": [],
      "stateMutability": "nonpayable",
      "type": "function"
    },
    {
      "inputs": [],
      "name": "symbol",
      "outputs": [
        {
          "internalType": "string",
          "name": "",
          "type": "string"
        }
      ],
      "stateMutability": "view",
      "type": "function"
    },
    {
      "inputs": [],
      "name": "taxWallet",
      "outputs": [
        {
          "internalType": "address",
          "name": "",
          "type": "address"
        }
      ],
      "stateMutability": "view",
      "type": "function"
    },
    {
      "inputs": [],
      "name": "totalSupply",
      "outputs": [
        {
          "internalType": "uint256",
          "name": "",
          "type": "uint256"
        }
      ],
      "stateMutability": "view",
      "type": "function"
    },
    {
      "inputs": [],
      "name": "transactionTax",
      "outputs": [
        {
          "internalType": "uint256",
          "name": "",
          "type": "uint256"
        }
      ],
      "stateMutability": "view",
      "type": "function"
    },
    {
      "inputs": [
        {
          "internalType": "address",
          "name": "to",
          "type": "address"
        },
        {
          "internalType": "uint256",
          "name": "value",
          "type": "uint256"
        }
      ],
      "name": "transfer",
      "outputs": [
        {
          "internalType": "bool",
          "name": "",
          "type": "bool"
        }
      ],
      "stateMutability": "nonpayable",
      "type": "function"
    },
    {
      "inputs": [
        {
          "internalType": "address",
          "name": "from",
          "type": "address"
        },
        {
          "internalType": "address",
          "name": "to",
          "type": "address"
        },
        {
          "internalType": "uint256",
          "name": "value",
          "type": "uint256"
        }
      ],
      "name": "transferFrom",
      "outputs": [
        {
          "internalType": "bool",
          "name": "",
          "type": "bool"
        }
      ],
      "stateMutability": "nonpayable",
      "type": "function"
    },
    {
      "inputs": [
        {
          "internalType": "address",
          "name": "newOwner",
          "type": "address"
        }
      ],
      "name": "transferOwnership",
      "outputs": [],
      "stateMutability": "nonpayable",
      "type": "function"
    },
    {
      "inputs": [],
      "name": "unpause",
      "outputs": [],
      "stateMutability": "nonpayable",
      "type": "function"
    },
    {
      "inputs": [],
      "name": "withdrawEther",
      "outputs": [],
      "stateMutability": "nonpayable",
      "type": "function"
    },
    {
      "stateMutability": "payable",
      "type": "receive"
    }
  ],
  "bytecode": "0x6080604052620000126012600a620006f6565b62000021906207a1206200070e565b6007556003600a553480156200003657600080fd5b5060405162001d4438038062001d44833981016040819052620000599162000728565b3360405180604001604052806005815260200164526f656e7360d81b81525060405180604001604052806005815260200164524f454e5360d81b8152508160039081620000a79190620007f7565b506004620000b68282620007f7565b50506005805460ff19169055506001600160a01b038116620000f357604051631e4fbdf760e01b8152600060048201526024015b60405180910390fd5b620000fe816200014e565b506200012833620001126012600a620006f6565b62000122906305f5e1006200070e565b620001a8565b600b80546001600160a01b0319166001600160a01b039290921691909117905562000912565b600580546001600160a01b03838116610100818102610100600160a81b031985161790945560405193909204169182907f8be0079c531659141344cd1fd0a4f28419497f9722a3daafe3b4186f6b6457e090600090a35050565b6001600160a01b038216620001d45760405163ec442f0560e01b815260006004820152602401620000ea565b620001e260008383620001e6565b5050565b60095460ff16156200023b5760405162461bcd60e51b815260206004820152601a60248201527f546f6b656e20636f6e74726163742069732064697361626c65640000000000006044820152606401620000ea565b6001600160a01b03831660009081526006602052604090205460ff1615620002a65760405162461bcd60e51b815260206004820152601560248201527f53656e64657220697320626c61636b6c697374656400000000000000000000006044820152606401620000ea565b6001600160a01b03821660009081526006602052604090205460ff1615620003115760405162461bcd60e51b815260206004820152601860248201527f526563697069656e7420697320626c61636b6c697374656400000000000000006044820152606401620000ea565b600754811115806200033b57506001600160a01b03831660009081526008602052604090205460ff165b620003895760405162461bcd60e51b815260206004820152601c60248201527f5472616e736665722065786365656473206d61785478416d6f756e74000000006044820152606401620000ea565b6001600160a01b0383166000908152600d602090815260408083205491839052909120548291620003ba91620008c3565b10156200040a5760405162461bcd60e51b815260206004820152601f60248201527f416d6f756e74206578636565647320756e6c6f636b65642062616c616e6365006044820152606401620000ea565b60006064600a54836200041e91906200070e565b6200042a9190620008d9565b905060006200043a8284620008c3565b600b54909150620004579086906001600160a01b0316846200046b565b620004648585836200046b565b5050505050565b6200047562000487565b62000482838383620004ae565b505050565b60055460ff1615620004ac5760405163d93c066560e01b815260040160405180910390fd5b565b6001600160a01b038316620004dd578060026000828254620004d19190620008fc565b90915550620005519050565b6001600160a01b03831660009081526020819052604090205481811015620005325760405163391434e360e21b81526001600160a01b03851660048201526024810182905260448101839052606401620000ea565b6001600160a01b03841660009081526020819052604090209082900390555b6001600160a01b0382166200056f576002805482900390556200058e565b6001600160a01b03821660009081526020819052604090208054820190555b816001600160a01b0316836001600160a01b03167fddf252ad1be2c89b69c2b068fc378daa952ba7f163c4a11628f55a4df523b3ef83604051620005d491815260200190565b60405180910390a3505050565b634e487b7160e01b600052601160045260246000fd5b600181815b80851115620006385781600019048211156200061c576200061c620005e1565b808516156200062a57918102915b93841c9390800290620005fc565b509250929050565b6000826200065157506001620006f0565b816200066057506000620006f0565b81600181146200067957600281146200068457620006a4565b6001915050620006f0565b60ff841115620006985762000698620005e1565b50506001821b620006f0565b5060208310610133831016604e8410600b8410161715620006c9575081810a620006f0565b620006d58383620005f7565b8060001904821115620006ec57620006ec620005e1565b0290505b92915050565b60006200070760ff84168362000640565b9392505050565b8082028115828204841417620006f057620006f0620005e1565b6000602082840312156200073b57600080fd5b81516001600160a01b03811681146200070757600080fd5b634e487b7160e01b600052604160045260246000fd5b600181811c908216806200077e57607f821691505b6020821081036200079f57634e487b7160e01b600052602260045260246000fd5b50919050565b601f8211156200048257600081815260208120601f850160051c81016020861015620007ce5750805b601f850160051c820191505b81811015620007ef57828155600101620007da565b505050505050565b81516001600160401b0381111562000813576200081362000753565b6200082b8162000824845462000769565b84620007a5565b602080601f8311600181146200086357600084156200084a5750858301515b600019600386901b1c1916600185901b178555620007ef565b600085815260208120601f198616915b82811015620008945788860151825594840194600190910190840162000873565b5085821015620008b35787850151600019600388901b60f8161c191681555b5050505050600190811b01905550565b81810381811115620006f057620006f0620005e1565b600082620008f757634e487b7160e01b600052601260045260246000fd5b500490565b80820180821115620006f057620006f0620005e1565b61142280620009226000396000f3fe6080604052600436106101dc5760003560e01c8063894ba83311610102578063c179c58011610095578063e74f3fbb11610064578063e74f3fbb1461056f578063ec28438a14610584578063f2fde38b146105a4578063fe575a87146105c457600080fd5b8063c179c580146104bd578063c4086893146104d3578063dd62ed3e14610509578063e0a668b41461054f57600080fd5b806395d89b41116100d157806395d89b4114610448578063a25983e51461045d578063a9059cbb1461047d578063c0a904a21461049d57600080fd5b8063894ba833146103da5780638c0b5e22146103ef5780638d1400b4146104055780638da5cb5b1461042557600080fd5b806342966c681161017a578063715018a611610149578063715018a61461037b5780637362377b1461039057806379cc6790146103a55780638456cb59146103c557600080fd5b806342966c68146102ed578063455a43961461030d5780635c975abb1461032d57806370a082311461034557600080fd5b806323b872dd116101b657806323b872dd146102625780632dc0562d14610282578063313ce567146102ba5780633f4ba83a146102d657600080fd5b806306fdde03146101e8578063095ea7b31461021357806318160ddd1461024357600080fd5b366101e357005b600080fd5b3480156101f457600080fd5b506101fd6105fd565b60405161020a9190611190565b60405180910390f35b34801561021f57600080fd5b5061023361022e3660046111fa565b61068f565b604051901515815260200161020a565b34801561024f57600080fd5b506002545b60405190815260200161020a565b34801561026e57600080fd5b5061023361027d366004611224565b6106a9565b34801561028e57600080fd5b50600b546102a2906001600160a01b031681565b6040516001600160a01b03909116815260200161020a565b3480156102c657600080fd5b506040516012815260200161020a565b3480156102e257600080fd5b506102eb6106cd565b005b3480156102f957600080fd5b506102eb610308366004611260565b6106df565b34801561031957600080fd5b506102eb610328366004611279565b6106ec565b34801561033957600080fd5b5060055460ff16610233565b34801561035157600080fd5b506102546103603660046112b5565b6001600160a01b031660009081526020819052604090205490565b34801561038757600080fd5b506102eb61071f565b34801561039c57600080fd5b506102eb610731565b3480156103b157600080fd5b506102eb6103c03660046111fa565b610779565b3480156103d157600080fd5b506102eb610792565b3480156103e657600080fd5b506102eb6107a2565b3480156103fb57600080fd5b5061025460075481565b34801561041157600080fd5b506102eb610420366004611260565b6107b9565b34801561043157600080fd5b5060055461010090046001600160a01b03166102a2565b34801561045457600080fd5b506101fd61080b565b34801561046957600080fd5b506102eb6104783660046112d7565b61081a565b34801561048957600080fd5b506102336104983660046111fa565b6108ad565b3480156104a957600080fd5b506102eb6104b8366004611279565b6108bb565b3480156104c957600080fd5b50610254600a5481565b3480156104df57600080fd5b506102546104ee3660046112b5565b6001600160a01b03166000908152600d602052604090205490565b34801561051557600080fd5b5061025461052436600461130a565b6001600160a01b03918216600090815260016020908152604080832093909416825291909152205490565b34801561055b57600080fd5b506102eb61056a3660046112d7565b6108ee565b34801561057b57600080fd5b506102eb61098a565b34801561059057600080fd5b506102eb61059f366004611260565b610a4c565b3480156105b057600080fd5b506102eb6105bf3660046112b5565b610a59565b3480156105d057600080fd5b506102336105df3660046112b5565b6001600160a01b031660009081526006602052604090205460ff1690565b60606003805461060c9061133d565b80601f01602080910402602001604051908101604052809291908181526020018280546106389061133d565b80156106855780601f1061065a57610100808354040283529160200191610685565b820191906000526020600020905b81548152906001019060200180831161066857829003601f168201915b5050505050905090565b60003361069d818585610a94565b60019150505b92915050565b6000336106b7858285610aa6565b6106c2858585610b25565b506001949350505050565b6106d5610b84565b6106dd610bb7565b565b6106e93382610c09565b50565b6106f4610b84565b6001600160a01b03919091166000908152600660205260409020805460ff1916911515919091179055565b610727610b84565b6106dd6000610c3f565b610739610b84565b6005546040516001600160a01b0361010090920491909116904780156108fc02916000818181858888f193505050501580156106e9573d6000803e3d6000fd5b610784823383610aa6565b61078e8282610c09565b5050565b61079a610b84565b6106dd610c99565b6107aa610b84565b6009805460ff19166001179055565b6107c1610b84565b600a8111156108065760405162461bcd60e51b815260206004820152600c60248201526b0a8c2f040e8dede40d0d2ced60a31b60448201526064015b60405180910390fd5b600a55565b60606004805461060c9061133d565b610822610b84565b42811161087b5760405162461bcd60e51b815260206004820152602160248201527f556e6c6f636b2074696d65206d75737420626520696e207468652066757475726044820152606560f81b60648201526084016107fd565b6001600160a01b0383166000908152600d6020526040812080548492906108a390849061138d565b9091555050505050565b60003361069d818585610b25565b6108c3610b84565b6001600160a01b03919091166000908152600860205260409020805460ff1916911515919091179055565b6108f6610b84565b4281116109505760405162461bcd60e51b815260206004820152602260248201527f52656c656173652074696d65206d75737420626520696e207468652066757475604482015261726560f01b60648201526084016107fd565b60408051808201825292835260208084019283526001600160a01b039094166000908152600c909452909220905181559051600190910155565b336000908152600c6020526040902060018101544210156109ed5760405162461bcd60e51b815260206004820152601760248201527f546f6b656e7320617265207374696c6c2076657374656400000000000000000060448201526064016107fd565b8054610a3b5760405162461bcd60e51b815260206004820152601960248201527f4e6f2076657374656420746f6b656e7320746f20636c61696d0000000000000060448201526064016107fd565b80546000825561078e303383610b25565b610a54610b84565b600755565b610a61610b84565b6001600160a01b038116610a8b57604051631e4fbdf760e01b8152600060048201526024016107fd565b6106e981610c3f565b610aa18383836001610cd6565b505050565b6001600160a01b03838116600090815260016020908152604080832093861683529290522054600019811015610b1f5781811015610b1057604051637dc7a0d960e11b81526001600160a01b038416600482015260248101829052604481018390526064016107fd565b610b1f84848484036000610cd6565b50505050565b6001600160a01b038316610b4f57604051634b637e8f60e11b8152600060048201526024016107fd565b6001600160a01b038216610b795760405163ec442f0560e01b8152600060048201526024016107fd565b610aa1838383610dab565b6005546001600160a01b036101009091041633146106dd5760405163118cdaa760e01b81523360048201526024016107fd565b610bbf611011565b6005805460ff191690557f5db9ee0a495bf2e6ff9c91a7834c1ba4fdd244a5e8aa4e537bd38aeae4b073aa335b6040516001600160a01b03909116815260200160405180910390a1565b6001600160a01b038216610c3357604051634b637e8f60e11b8152600060048201526024016107fd565b61078e82600083610dab565b600580546001600160a01b03838116610100818102610100600160a81b031985161790945560405193909204169182907f8be0079c531659141344cd1fd0a4f28419497f9722a3daafe3b4186f6b6457e090600090a35050565b610ca1611034565b6005805460ff191660011790557f62e78cea01bee320cd4e420270b5ea74000d11b0c9f74754ebdbfc544b05a258610bec3390565b6001600160a01b038416610d005760405163e602df0560e01b8152600060048201526024016107fd565b6001600160a01b038316610d2a57604051634a1406b160e11b8152600060048201526024016107fd565b6001600160a01b0380851660009081526001602090815260408083209387168352929052208290558015610b1f57826001600160a01b0316846001600160a01b03167f8c5be1e5ebec7d5bd14f71427d1e84f3dd0314c0f7b2291e5b200ac8c7c3b92584604051610d9d91815260200190565b60405180910390a350505050565b60095460ff1615610dfe5760405162461bcd60e51b815260206004820152601a60248201527f546f6b656e20636f6e74726163742069732064697361626c656400000000000060448201526064016107fd565b6001600160a01b03831660009081526006602052604090205460ff1615610e5f5760405162461bcd60e51b815260206004820152601560248201527414d95b99195c881a5cc8189b1858dadb1a5cdd1959605a1b60448201526064016107fd565b6001600160a01b03821660009081526006602052604090205460ff1615610ec85760405162461bcd60e51b815260206004820152601860248201527f526563697069656e7420697320626c61636b6c6973746564000000000000000060448201526064016107fd565b60075481111580610ef157506001600160a01b03831660009081526008602052604090205460ff165b610f3d5760405162461bcd60e51b815260206004820152601c60248201527f5472616e736665722065786365656473206d61785478416d6f756e740000000060448201526064016107fd565b6001600160a01b0383166000908152600d602090815260408083205491839052909120548291610f6c916113a0565b1015610fba5760405162461bcd60e51b815260206004820152601f60248201527f416d6f756e74206578636565647320756e6c6f636b65642062616c616e63650060448201526064016107fd565b60006064600a5483610fcc91906113b3565b610fd691906113ca565b90506000610fe482846113a0565b600b54909150610fff9086906001600160a01b031684611058565b61100a858583611058565b5050505050565b60055460ff166106dd57604051638dfc202b60e01b815260040160405180910390fd5b60055460ff16156106dd5760405163d93c066560e01b815260040160405180910390fd5b611060611034565b610aa18383836001600160a01b038316611091578060026000828254611086919061138d565b909155506111039050565b6001600160a01b038316600090815260208190526040902054818110156110e45760405163391434e360e21b81526001600160a01b038516600482015260248101829052604481018390526064016107fd565b6001600160a01b03841660009081526020819052604090209082900390555b6001600160a01b03821661111f5760028054829003905561113e565b6001600160a01b03821660009081526020819052604090208054820190555b816001600160a01b0316836001600160a01b03167fddf252ad1be2c89b69c2b068fc378daa952ba7f163c4a11628f55a4df523b3ef8360405161118391815260200190565b60405180910390a3505050565b600060208083528351808285015260005b818110156111bd578581018301518582016040015282016111a1565b506000604082860101526040601f19601f8301168501019250505092915050565b80356001600160a01b03811681146111f557600080fd5b919050565b6000806040838503121561120d57600080fd5b611216836111de565b946020939093013593505050565b60008060006060848603121561123957600080fd5b611242846111de565b9250611250602085016111de565b9150604084013590509250925092565b60006020828403121561127257600080fd5b5035919050565b6000806040838503121561128c57600080fd5b611295836111de565b9150602083013580151581146112aa57600080fd5b809150509250929050565b6000602082840312156112c757600080fd5b6112d0826111de565b9392505050565b6000806000606084860312156112ec57600080fd5b6112f5846111de565b95602085013595506040909401359392505050565b6000806040838503121561131d57600080fd5b611326836111de565b9150611334602084016111de565b90509250929050565b600181811c9082168061135157607f821691505b60208210810361137157634e487b7160e01b600052602260045260246000fd5b50919050565b634e487b7160e01b600052601160045260246000fd5b808201808211156106a3576106a3611377565b818103818111156106a3576106a3611377565b80820281158282048414176106a3576106a3611377565b6000826113e757634e487b7160e01b600052601260045260246000fd5b50049056fea2646970667358221220779075d80d2559a8dee6d22449e8ac14a9782f987d2be0242febff8e37a5759564736f6c63430008140033",
  "linkReferences": {},
  "deployedLinkReferences": {}
}