{
  "_format": "hh-sol-artifact-1",
  "contractName": "RoensToken",
  "sourceName": "contracts/roens-token.sol",
  "abi": [
    {
      "inputs": [
        {
          "internalType": "address",
          "name": "_taxWallet",
          "type": "address"
        }
      ],
      "stateMutability": "nonpayable",
      "type": "constructor"
    },
    {
      "inputs": [
        {
          "internalType": "address",
          "name": "spender",
          "type": "address"
        },
        {
          "internalType": "uint256",
          "name": "allowance",
          "type": "uint256"
        },
        {
          "internalType": "uint256",
          "name": "needed",
          "type": "uint256"
        }
      ],
      "name": "ERC20InsufficientAllowance",
      "type": "error"
    },
    {
      "inputs": [
        {
          "internalType": "address",
          "name": "sender",
          "type": "address"
        },
        {
          "internalType": "uint256",
          "name": "balance",
          "type": "uint256"
        },
        {
          "internalType": "uint256",
          "name": "needed",
          "type": "uint256"
        }
      ],
      "name": "ERC20InsufficientBalance",
      "type": "error"
    },
    {
      "inputs": [
        {
          "internalType": "address",
          "name": "approver",
          "type": "address"
        }
      ],
      "name": "ERC20InvalidApprover",
      "type": "error"
    },
    {
      "inputs": [
        {
          "internalType": "address",
          "name": "receiver",
          "type": "address"
        }
      ],
      "name": "ERC20InvalidReceiver",
      "type": "error"
    },
    {
      "inputs": [
        {
          "internalType": "address",
          "name": "sender",
          "type": "address"
        }
      ],
      "name": "ERC20InvalidSender",
      "type": "error"
    },
    {
      "inputs": [
        {
          "internalType": "address",
          "name": "spender",
          "type": "address"
        }
      ],
      "name": "ERC20InvalidSpender",
      "type": "error"
    },
    {
      "inputs": [],
      "name": "EnforcedPause",
      "type": "error"
    },
    {
      "inputs": [],
      "name": "ExpectedPause",
      "type": "error"
    },
    {
      "inputs": [
        {
          "internalType": "address",
          "name": "owner",
          "type": "address"
        }
      ],
      "name": "OwnableInvalidOwner",
      "type": "error"
    },
    {
      "inputs": [
        {
          "internalType": "address",
          "name": "account",
          "type": "address"
        }
      ],
      "name": "OwnableUnauthorizedAccount",
      "type": "error"
    },
    {
      "anonymous": false,
      "inputs": [
        {
          "indexed": true,
          "internalType": "address",
          "name": "owner",
          "type": "address"
        },
        {
          "indexed": true,
          "internalType": "address",
          "name": "spender",
          "type": "address"
        },
        {
          "indexed": false,
          "internalType": "uint256",
          "name": "value",
          "type": "uint256"
        }
      ],
      "name": "Approval",
      "type": "event"
    },
    {
      "anonymous": false,
      "inputs": [
        {
          "indexed": true,
          "internalType": "address",
          "name": "previousOwner",
          "type": "address"
        },
        {
          "indexed": true,
          "internalType": "address",
          "name": "newOwner",
          "type": "address"
        }
      ],
      "name": "OwnershipTransferred",
      "type": "event"
    },
    {
      "anonymous": false,
      "inputs": [
        {
          "indexed": false,
          "internalType": "address",
          "name": "account",
          "type": "address"
        }
      ],
      "name": "Paused",
      "type": "event"
    },
    {
      "anonymous": false,
      "inputs": [
        {
          "indexed": true,
          "internalType": "address",
          "name": "from",
          "type": "address"
        },
        {
          "indexed": true,
          "internalType": "address",
          "name": "to",
          "type": "address"
        },
        {
          "indexed": false,
          "internalType": "uint256",
          "name": "value",
          "type": "uint256"
        }
      ],
      "name": "Transfer",
      "type": "event"
    },
    {
      "anonymous": false,
      "inputs": [
        {
          "indexed": false,
          "internalType": "address",
          "name": "account",
          "type": "address"
        }
      ],
      "name": "Unpaused",
      "type": "event"
    },
    {
      "inputs": [
        {
          "internalType": "address",
          "name": "owner",
          "type": "address"
        },
        {
          "internalType": "address",
          "name": "spender",
          "type": "address"
        }
      ],
      "name": "allowance",
      "outputs": [
        {
          "internalType": "uint256",
          "name": "",
          "type": "uint256"
        }
      ],
      "stateMutability": "view",
      "type": "function"
    },
    {
      "inputs": [
        {
          "internalType": "address",
          "name": "spender",
          "type": "address"
        },
        {
          "internalType": "uint256",
          "name": "value",
          "type": "uint256"
        }
      ],
      "name": "approve",
      "outputs": [
        {
          "internalType": "bool",
          "name": "",
          "type": "bool"
        }
      ],
      "stateMutability": "nonpayable",
      "type": "function"
    },
    {
      "inputs": [
        {
          "internalType": "address",
          "name": "account",
          "type": "address"
        }
      ],
      "name": "balanceOf",
      "outputs": [
        {
          "internalType": "uint256",
          "name": "",
          "type": "uint256"
        }
      ],
      "stateMutability": "view",
      "type": "function"
    },
    {
      "inputs": [
        {
          "internalType": "address",
          "name": "account",
          "type": "address"
        },
        {
          "internalType": "bool",
          "name": "value",
          "type": "bool"
        }
      ],
      "name": "blacklistAddress",
      "outputs": [],
      "stateMutability": "nonpayable",
      "type": "function"
    },
    {
      "inputs": [
        {
          "internalType": "uint256",
          "name": "value",
          "type": "uint256"
        }
      ],
      "name": "burn",
      "outputs": [],
      "stateMutability": "nonpayable",
      "type": "function"
    },
    {
      "inputs": [
        {
          "internalType": "address",
          "name": "account",
          "type": "address"
        },
        {
          "internalType": "uint256",
          "name": "value",
          "type": "uint256"
        }
      ],
      "name": "burnFrom",
      "outputs": [],
      "stateMutability": "nonpayable",
      "type": "function"
    },
    {
      "inputs": [],
      "name": "claimVestedTokens",
      "outputs": [],
      "stateMutability": "nonpayable",
      "type": "function"
    },
    {
      "inputs": [],
      "name": "decimals",
      "outputs": [
        {
          "internalType": "uint8",
          "name": "",
          "type": "uint8"
        }
      ],
      "stateMutability": "view",
      "type": "function"
    },
    {
      "inputs": [],
      "name": "disableContract",
      "outputs": [],
      "stateMutability": "nonpayable",
      "type": "function"
    },
    {
      "inputs": [
        {
          "internalType": "address",
          "name": "account",
          "type": "address"
        }
      ],
      "name": "getLockedBalance",
      "outputs": [
        {
          "internalType": "uint256",
          "name": "",
          "type": "uint256"
        }
      ],
      "stateMutability": "view",
      "type": "function"
    },
    {
      "inputs": [
        {
          "internalType": "address",
          "name": "account",
          "type": "address"
        }
      ],
      "name": "isBlacklisted",
      "outputs": [
        {
          "internalType": "bool",
          "name": "",
          "type": "bool"
        }
      ],
      "stateMutability": "view",
      "type": "function"
    },
    {
      "inputs": [
        {
          "internalType": "address",
          "name": "account",
          "type": "address"
        },
        {
          "internalType": "uint256",
          "name": "amount",
          "type": "uint256"
        },
        {
          "internalType": "uint256",
          "name": "unlockTime",
          "type": "uint256"
        }
      ],
      "name": "lockTokens",
      "outputs": [],
      "stateMutability": "nonpayable",
      "type": "function"
    },
    {
      "inputs": [],
      "name": "maxTxAmount",
      "outputs": [
        {
          "internalType": "uint256",
          "name": "",
          "type": "uint256"
        }
      ],
      "stateMutability": "view",
      "type": "function"
    },
    {
      "inputs": [],
      "name": "name",
      "outputs": [
        {
          "internalType": "string",
          "name": "",
          "type": "string"
        }
      ],
      "stateMutability": "view",
      "type": "function"
    },
    {
      "inputs": [],
      "name": "owner",
      "outputs": [
        {
          "internalType": "address",
          "name": "",
          "type": "address"
        }
      ],
      "stateMutability": "view",
      "type": "function"
    },
    {
      "inputs": [],
      "name": "pause",
      "outputs": [],
      "stateMutability": "nonpayable",
      "type": "function"
    },
    {
      "inputs": [],
      "name": "paused",
      "outputs": [
        {
          "internalType": "bool",
          "name": "",
          "type": "bool"
        }
      ],
      "stateMutability": "view",
      "type": "function"
    },
    {
      "inputs": [],
      "name": "renounceOwnership",
      "outputs": [],
      "stateMutability": "nonpayable",
      "type": "function"
    },
    {
      "inputs": [
        {
          "internalType": "uint256",
          "name": "amount",
          "type": "uint256"
        }
      ],
      "name": "setMaxTxAmount",
      "outputs": [],
      "stateMutability": "nonpayable",
      "type": "function"
    },
    {
      "inputs": [
        {
          "internalType": "address",
          "name": "account",
          "type": "address"
        },
        {
          "internalType": "uint256",
          "name": "amount",
          "type": "uint256"
        },
        {
          "internalType": "uint256",
          "name": "releaseTime",
          "type": "uint256"
        }
      ],
      "name": "setVesting",
      "outputs": [],
      "stateMutability": "nonpayable",
      "type": "function"
    },
    {
      "inputs": [],
      "name": "symbol",
      "outputs": [
        {
          "internalType": "string",
          "name": "",
          "type": "string"
        }
      ],
      "stateMutability": "view",
      "type": "function"
    },
    {
      "inputs": [],
      "name": "taxWallet",
      "outputs": [
        {
          "internalType": "address",
          "name": "",
          "type": "address"
        }
      ],
      "stateMutability": "view",
      "type": "function"
    },
    {
      "inputs": [],
      "name": "totalSupply",
      "outputs": [
        {
          "internalType": "uint256",
          "name": "",
          "type": "uint256"
        }
      ],
      "stateMutability": "view",
      "type": "function"
    },
    {
      "inputs": [],
      "name": "transactionTax",
      "outputs": [
        {
          "internalType": "uint256",
          "name": "",
          "type": "uint256"
        }
      ],
      "stateMutability": "view",
      "type": "function"
    },
    {
      "inputs": [
        {
          "internalType": "address",
          "name": "to",
          "type": "address"
        },
        {
          "internalType": "uint256",
          "name": "value",
          "type": "uint256"
        }
      ],
      "name": "transfer",
      "outputs": [
        {
          "internalType": "bool",
          "name": "",
          "type": "bool"
        }
      ],
      "stateMutability": "nonpayable",
      "type": "function"
    },
    {
      "inputs": [
        {
          "internalType": "address",
          "name": "from",
          "type": "address"
        },
        {
          "internalType": "address",
          "name": "to",
          "type": "address"
        },
        {
          "internalType": "uint256",
          "name": "value",
          "type": "uint256"
        }
      ],
      "name": "transferFrom",
      "outputs": [
        {
          "internalType": "bool",
          "name": "",
          "type": "bool"
        }
      ],
      "stateMutability": "nonpayable",
      "type": "function"
    },
    {
      "inputs": [
        {
          "internalType": "address",
          "name": "newOwner",
          "type": "address"
        }
      ],
      "name": "transferOwnership",
      "outputs": [],
      "stateMutability": "nonpayable",
      "type": "function"
    },
    {
      "inputs": [],
      "name": "unpause",
      "outputs": [],
      "stateMutability": "nonpayable",
      "type": "function"
    },
    {
      "inputs": [],
      "name": "withdrawEther",
      "outputs": [],
      "stateMutability": "nonpayable",
      "type": "function"
    },
    {
      "stateMutability": "payable",
      "type": "receive"
    }
  ],
  "bytecode": "0x6080604052620000126012600a620007af565b62000021906207a120620007c7565b6007556003600a553480156200003657600080fd5b5060405162001db638038062001db68339810160408190526200005991620007e1565b3360405180604001604052806005815260200164526f656e7360d81b81525060405180604001604052806005815260200164524f454e5360d81b8152508160039081620000a79190620008b0565b506004620000b68282620008b0565b50506005805460ff19169055506001600160a01b038116620000f357604051631e4fbdf760e01b8152600060048201526024015b60405180910390fd5b620000fe8162000168565b506200012833620001126012600a620007af565b62000122906305f5e100620007c7565b620001c2565b600b80546001600160a01b0319166001600160a01b0392909216919091179055336000908152600860205260409020805460ff19166001179055620009cb565b600580546001600160a01b03838116610100818102610100600160a81b031985161790945560405193909204169182907f8be0079c531659141344cd1fd0a4f28419497f9722a3daafe3b4186f6b6457e090600090a35050565b6001600160a01b038216620001ee5760405163ec442f0560e01b815260006004820152602401620000ea565b620001fc6000838362000200565b5050565b6001600160a01b03831615620004c35760095460ff1615620002655760405162461bcd60e51b815260206004820152601a60248201527f546f6b656e20636f6e74726163742069732064697361626c65640000000000006044820152606401620000ea565b6001600160a01b03831660009081526006602052604090205460ff1615620002d05760405162461bcd60e51b815260206004820152601560248201527f53656e64657220697320626c61636b6c697374656400000000000000000000006044820152606401620000ea565b6001600160a01b03821660009081526006602052604090205460ff16156200033b5760405162461bcd60e51b815260206004820152601860248201527f526563697069656e7420697320626c61636b6c697374656400000000000000006044820152606401620000ea565b600754811115806200036557506001600160a01b03831660009081526008602052604090205460ff165b620003b35760405162461bcd60e51b815260206004820152601c60248201527f5472616e736665722065786365656473206d61785478416d6f756e74000000006044820152606401620000ea565b6001600160a01b0383166000908152600d602090815260408083205491839052909120548291620003e4916200097c565b1015620004345760405162461bcd60e51b815260206004820152601f60248201527f416d6f756e74206578636565647320756e6c6f636b65642062616c616e6365006044820152606401620000ea565b6001600160a01b0383166000908152600c6020526040902060010154421015806200047557506001600160a01b0383166000908152600c6020526040902054155b620004c35760405162461bcd60e51b815260206004820152601760248201527f546f6b656e7320617265207374696c6c207665737465640000000000000000006044820152606401620000ea565b60006064600a5483620004d79190620007c7565b620004e3919062000992565b90506000620004f382846200097c565b600b54909150620005109086906001600160a01b03168462000524565b6200051d85858362000524565b5050505050565b6200052e62000540565b6200053b83838362000567565b505050565b60055460ff1615620005655760405163d93c066560e01b815260040160405180910390fd5b565b6001600160a01b038316620005965780600260008282546200058a9190620009b5565b909155506200060a9050565b6001600160a01b03831660009081526020819052604090205481811015620005eb5760405163391434e360e21b81526001600160a01b03851660048201526024810182905260448101839052606401620000ea565b6001600160a01b03841660009081526020819052604090209082900390555b6001600160a01b038216620006285760028054829003905562000647565b6001600160a01b03821660009081526020819052604090208054820190555b816001600160a01b0316836001600160a01b03167fddf252ad1be2c89b69c2b068fc378daa952ba7f163c4a11628f55a4df523b3ef836040516200068d91815260200190565b60405180910390a3505050565b634e487b7160e01b600052601160045260246000fd5b600181815b80851115620006f1578160001904821115620006d557620006d56200069a565b80851615620006e357918102915b93841c9390800290620006b5565b509250929050565b6000826200070a57506001620007a9565b816200071957506000620007a9565b81600181146200073257600281146200073d576200075d565b6001915050620007a9565b60ff8411156200075157620007516200069a565b50506001821b620007a9565b5060208310610133831016604e8410600b841016171562000782575081810a620007a9565b6200078e8383620006b0565b8060001904821115620007a557620007a56200069a565b0290505b92915050565b6000620007c060ff841683620006f9565b9392505050565b8082028115828204841417620007a957620007a96200069a565b600060208284031215620007f457600080fd5b81516001600160a01b0381168114620007c057600080fd5b634e487b7160e01b600052604160045260246000fd5b600181811c908216806200083757607f821691505b6020821081036200085857634e487b7160e01b600052602260045260246000fd5b50919050565b601f8211156200053b57600081815260208120601f850160051c81016020861015620008875750805b601f850160051c820191505b81811015620008a85782815560010162000893565b505050505050565b81516001600160401b03811115620008cc57620008cc6200080c565b620008e481620008dd845462000822565b846200085e565b602080601f8311600181146200091c5760008415620009035750858301515b600019600386901b1c1916600185901b178555620008a8565b600085815260208120601f198616915b828110156200094d578886015182559484019460019091019084016200092c565b50858210156200096c5787850151600019600388901b60f8161c191681555b5050505050600190811b01905550565b81810381811115620007a957620007a96200069a565b600082620009b057634e487b7160e01b600052601260045260246000fd5b500490565b80820180821115620007a957620007a96200069a565b6113db80620009db6000396000f3fe6080604052600436106101c65760003560e01c80638456cb59116100f7578063c179c58011610095578063e74f3fbb11610064578063e74f3fbb14610519578063ec28438a1461052e578063f2fde38b1461054e578063fe575a871461056e57600080fd5b8063c179c58014610467578063c40868931461047d578063dd62ed3e146104b3578063e0a668b4146104f957600080fd5b80638da5cb5b116100d15780638da5cb5b146103ef57806395d89b4114610412578063a25983e514610427578063a9059cbb1461044757600080fd5b80638456cb59146103af578063894ba833146103c45780638c0b5e22146103d957600080fd5b806342966c681161016457806370a082311161013e57806370a082311461032f578063715018a6146103655780637362377b1461037a57806379cc67901461038f57600080fd5b806342966c68146102d7578063455a4396146102f75780635c975abb1461031757600080fd5b806323b872dd116101a057806323b872dd1461024c5780632dc0562d1461026c578063313ce567146102a45780633f4ba83a146102c057600080fd5b806306fdde03146101d2578063095ea7b3146101fd57806318160ddd1461022d57600080fd5b366101cd57005b600080fd5b3480156101de57600080fd5b506101e76105a7565b6040516101f49190611149565b60405180910390f35b34801561020957600080fd5b5061021d6102183660046111b3565b610639565b60405190151581526020016101f4565b34801561023957600080fd5b506002545b6040519081526020016101f4565b34801561025857600080fd5b5061021d6102673660046111dd565b610653565b34801561027857600080fd5b50600b5461028c906001600160a01b031681565b6040516001600160a01b0390911681526020016101f4565b3480156102b057600080fd5b50604051601281526020016101f4565b3480156102cc57600080fd5b506102d5610677565b005b3480156102e357600080fd5b506102d56102f2366004611219565b610689565b34801561030357600080fd5b506102d5610312366004611232565b610696565b34801561032357600080fd5b5060055460ff1661021d565b34801561033b57600080fd5b5061023e61034a36600461126e565b6001600160a01b031660009081526020819052604090205490565b34801561037157600080fd5b506102d56106c9565b34801561038657600080fd5b506102d56106db565b34801561039b57600080fd5b506102d56103aa3660046111b3565b610723565b3480156103bb57600080fd5b506102d561073c565b3480156103d057600080fd5b506102d561074c565b3480156103e557600080fd5b5061023e60075481565b3480156103fb57600080fd5b5060055461010090046001600160a01b031661028c565b34801561041e57600080fd5b506101e7610763565b34801561043357600080fd5b506102d5610442366004611290565b610772565b34801561045357600080fd5b5061021d6104623660046111b3565b61080a565b34801561047357600080fd5b5061023e600a5481565b34801561048957600080fd5b5061023e61049836600461126e565b6001600160a01b03166000908152600d602052604090205490565b3480156104bf57600080fd5b5061023e6104ce3660046112c3565b6001600160a01b03918216600090815260016020908152604080832093909416825291909152205490565b34801561050557600080fd5b506102d5610514366004611290565b610818565b34801561052557600080fd5b506102d56108b4565b34801561053a57600080fd5b506102d5610549366004611219565b610970565b34801561055a57600080fd5b506102d561056936600461126e565b61097d565b34801561057a57600080fd5b5061021d61058936600461126e565b6001600160a01b031660009081526006602052604090205460ff1690565b6060600380546105b6906112f6565b80601f01602080910402602001604051908101604052809291908181526020018280546105e2906112f6565b801561062f5780601f106106045761010080835404028352916020019161062f565b820191906000526020600020905b81548152906001019060200180831161061257829003601f168201915b5050505050905090565b6000336106478185856109b8565b60019150505b92915050565b6000336106618582856109ca565b61066c858585610a49565b506001949350505050565b61067f610aa8565b610687610adb565b565b6106933382610b2d565b50565b61069e610aa8565b6001600160a01b03919091166000908152600660205260409020805460ff1916911515919091179055565b6106d1610aa8565b6106876000610b63565b6106e3610aa8565b6005546040516001600160a01b0361010090920491909116904780156108fc02916000818181858888f19350505050158015610693573d6000803e3d6000fd5b61072e8233836109ca565b6107388282610b2d565b5050565b610744610aa8565b610687610bbd565b610754610aa8565b6009805460ff19166001179055565b6060600480546105b6906112f6565b61077a610aa8565b4281116107d85760405162461bcd60e51b815260206004820152602160248201527f556e6c6f636b2074696d65206d75737420626520696e207468652066757475726044820152606560f81b60648201526084015b60405180910390fd5b6001600160a01b0383166000908152600d602052604081208054849290610800908490611346565b9091555050505050565b600033610647818585610a49565b610820610aa8565b42811161087a5760405162461bcd60e51b815260206004820152602260248201527f52656c656173652074696d65206d75737420626520696e207468652066757475604482015261726560f01b60648201526084016107cf565b60408051808201825292835260208084019283526001600160a01b039094166000908152600c909452909220905181559051600190910155565b336000908152600c6020526040902060018101544210156109115760405162461bcd60e51b8152602060048201526017602482015276151bdad95b9cc8185c99481cdd1a5b1b081d995cdd1959604a1b60448201526064016107cf565b805461095f5760405162461bcd60e51b815260206004820152601960248201527f4e6f2076657374656420746f6b656e7320746f20636c61696d0000000000000060448201526064016107cf565b805460008255610738303383610a49565b610978610aa8565b600755565b610985610aa8565b6001600160a01b0381166109af57604051631e4fbdf760e01b8152600060048201526024016107cf565b61069381610b63565b6109c58383836001610bfa565b505050565b6001600160a01b03838116600090815260016020908152604080832093861683529290522054600019811015610a435781811015610a3457604051637dc7a0d960e11b81526001600160a01b038416600482015260248101829052604481018390526064016107cf565b610a4384848484036000610bfa565b50505050565b6001600160a01b038316610a7357604051634b637e8f60e11b8152600060048201526024016107cf565b6001600160a01b038216610a9d5760405163ec442f0560e01b8152600060048201526024016107cf565b6109c5838383610ccf565b6005546001600160a01b036101009091041633146106875760405163118cdaa760e01b81523360048201526024016107cf565b610ae3610fca565b6005805460ff191690557f5db9ee0a495bf2e6ff9c91a7834c1ba4fdd244a5e8aa4e537bd38aeae4b073aa335b6040516001600160a01b03909116815260200160405180910390a1565b6001600160a01b038216610b5757604051634b637e8f60e11b8152600060048201526024016107cf565b61073882600083610ccf565b600580546001600160a01b03838116610100818102610100600160a81b031985161790945560405193909204169182907f8be0079c531659141344cd1fd0a4f28419497f9722a3daafe3b4186f6b6457e090600090a35050565b610bc5610fed565b6005805460ff191660011790557f62e78cea01bee320cd4e420270b5ea74000d11b0c9f74754ebdbfc544b05a258610b103390565b6001600160a01b038416610c245760405163e602df0560e01b8152600060048201526024016107cf565b6001600160a01b038316610c4e57604051634a1406b160e11b8152600060048201526024016107cf565b6001600160a01b0380851660009081526001602090815260408083209387168352929052208290558015610a4357826001600160a01b0316846001600160a01b03167f8c5be1e5ebec7d5bd14f71427d1e84f3dd0314c0f7b2291e5b200ac8c7c3b92584604051610cc191815260200190565b60405180910390a350505050565b6001600160a01b03831615610f735760095460ff1615610d315760405162461bcd60e51b815260206004820152601a60248201527f546f6b656e20636f6e74726163742069732064697361626c656400000000000060448201526064016107cf565b6001600160a01b03831660009081526006602052604090205460ff1615610d925760405162461bcd60e51b815260206004820152601560248201527414d95b99195c881a5cc8189b1858dadb1a5cdd1959605a1b60448201526064016107cf565b6001600160a01b03821660009081526006602052604090205460ff1615610dfb5760405162461bcd60e51b815260206004820152601860248201527f526563697069656e7420697320626c61636b6c6973746564000000000000000060448201526064016107cf565b60075481111580610e2457506001600160a01b03831660009081526008602052604090205460ff165b610e705760405162461bcd60e51b815260206004820152601c60248201527f5472616e736665722065786365656473206d61785478416d6f756e740000000060448201526064016107cf565b6001600160a01b0383166000908152600d602090815260408083205491839052909120548291610e9f91611359565b1015610eed5760405162461bcd60e51b815260206004820152601f60248201527f416d6f756e74206578636565647320756e6c6f636b65642062616c616e63650060448201526064016107cf565b6001600160a01b0383166000908152600c602052604090206001015442101580610f2d57506001600160a01b0383166000908152600c6020526040902054155b610f735760405162461bcd60e51b8152602060048201526017602482015276151bdad95b9cc8185c99481cdd1a5b1b081d995cdd1959604a1b60448201526064016107cf565b60006064600a5483610f85919061136c565b610f8f9190611383565b90506000610f9d8284611359565b600b54909150610fb89086906001600160a01b031684611011565b610fc3858583611011565b5050505050565b60055460ff1661068757604051638dfc202b60e01b815260040160405180910390fd5b60055460ff16156106875760405163d93c066560e01b815260040160405180910390fd5b611019610fed565b6109c58383836001600160a01b03831661104a57806002600082825461103f9190611346565b909155506110bc9050565b6001600160a01b0383166000908152602081905260409020548181101561109d5760405163391434e360e21b81526001600160a01b038516600482015260248101829052604481018390526064016107cf565b6001600160a01b03841660009081526020819052604090209082900390555b6001600160a01b0382166110d8576002805482900390556110f7565b6001600160a01b03821660009081526020819052604090208054820190555b816001600160a01b0316836001600160a01b03167fddf252ad1be2c89b69c2b068fc378daa952ba7f163c4a11628f55a4df523b3ef8360405161113c91815260200190565b60405180910390a3505050565b600060208083528351808285015260005b818110156111765785810183015185820160400152820161115a565b506000604082860101526040601f19601f8301168501019250505092915050565b80356001600160a01b03811681146111ae57600080fd5b919050565b600080604083850312156111c657600080fd5b6111cf83611197565b946020939093013593505050565b6000806000606084860312156111f257600080fd5b6111fb84611197565b925061120960208501611197565b9150604084013590509250925092565b60006020828403121561122b57600080fd5b5035919050565b6000806040838503121561124557600080fd5b61124e83611197565b91506020830135801515811461126357600080fd5b809150509250929050565b60006020828403121561128057600080fd5b61128982611197565b9392505050565b6000806000606084860312156112a557600080fd5b6112ae84611197565b95602085013595506040909401359392505050565b600080604083850312156112d657600080fd5b6112df83611197565b91506112ed60208401611197565b90509250929050565b600181811c9082168061130a57607f821691505b60208210810361132a57634e487b7160e01b600052602260045260246000fd5b50919050565b634e487b7160e01b600052601160045260246000fd5b8082018082111561064d5761064d611330565b8181038181111561064d5761064d611330565b808202811582820484141761064d5761064d611330565b6000826113a057634e487b7160e01b600052601260045260246000fd5b50049056fea264697066735822122098a7c97b29a1db400912de50b0ebebdc670a481c32859849e6d2b03a92fd19dc64736f6c63430008140033",
  "linkReferences": {},
  "deployedLinkReferences": {}
}